S0210000536E656C686569647373656E736F725F76657273747572656E2E737265637D
S11300000C944A000C945C000C945C000C945C000E
S11300100C945C000C945C000C945C000C945C00EC
S11300200C945C000C945C000C945C000C945C00DC
S11300300C9452020C945C000C945C000C945C00D4
S11300400C945C000C945C000C94F8000C945C0020
S11300500C945C000C945C000C945C000C945C00AC
S11300600C945C000C945C000C945C000C945C009C
S11300700C945C000C945C000C945C000C945C008C
S11300800C945C000C945C000C945C000C945C007C
S11300900C945C0011241FBECFEFD8E0DEBFCDBFAF
S11300A021E0A0E0B1E001C01D92A23EB207E1F759
S11300B00E940B020C9488040C940000E8EDF0E01C
S11300C080818160808386E08093E20084E0809375
S11300D0E30083E18093E40080E008C0982F9295C8
S11300E0907F9093ED001092EF008F5F8F30B0F30C
S11300F078941092DA0080EB8093DB00E8EDF0E076
S1130100808182608083089580E00AC0982F929550
S1130110907F9093ED009091EF00907C21F08F5FA1
S11301208F30A0F38FEF0895CF93DF93EC010E94FB
S113013084008F3F09F458C0EDEEF0E09081482F21
S113014050E09A0122953295307F3227207F322762
S1130150292B20831092F0001092F100988192953F
S1130160990F907E9093F200988196959695969526
S11301709093F3009A85993010F098E09A879A85C5
S11301809093EF0090E007C0FE01E90FF11D22817A
S11301902093FA009F5F2A859217B0F3883078F491
S11301A0EEEDF0E0408121E030E0B90102C0660FDD
S11301B0771F8A95E2F7CB01842B80830EC0EFED85
S11301C0F0E020814850510981E090E002C0880F9E
S11301D0991F4A95E2F7822B8083EFEEF0E080814D
S11301E08064808381E001C080E0DF91CF91089535
S11301F01F920F920FB60F9211242F933F934F9398
S11302005F936F937F938F939F93AF93BF93CF939A
S1130210EF93FF93C091ED0087C08091EC00807F45
S11302208093ED008091EE0086FF0CC01092EE00EA
S11302301092EF008091ED00EEEDF0E080818E7F72
S1130240808372C08091EE0085FF62C08091EF00D0
S113025084FF0EC08091F000869586958695409126
S1130260F1004F7790E2499FA0011124482B0FC061
S11302708091F2008295869587704091F30050E05A
S1130280440F551F440F551F440F551F482B2091F1
S1130290010130E08BE0829FF001839FF00D112477
S11302A0EE5FFE4F4083952F97708181887F892B65
S11302B081838091EF008F70828790E00EC08091DF
S11302C0FA004BE0429FF001439FF00D1124EE5FD2
S11302D0FE4FE90FF11D82839F5F8BE0829FF00147
S11302E0839FF00D1124EE5FFE4F8285981738F33B
S11302F0C901019664E170E00E943E04809301010B
S11303001092EE00EFEEF0E08081806880830CC0F4
S11303108091DA0090E08F77892B31F0EAEDF0E0FC
S113032080818093000110828091EC0082958F700F
S11303308F3009F072CFC093ED00FF91EF91CF9110
S1130340BF91AF919F918F917F916F915F914F91E9
S11303503F912F910F900FBE0F901F9018958F9281
S11303609F92AF92BF92CF92DF92EF92FF92CF9380
S1130370DF93CDB7DEB72B970FB6F894DEBF0FBE71
S1130380CDBF4B015C010E940D036B017C01072E64
S1130390000C880B990B0E9445039B01AC01C5011D
S11303A0B4010E94A00220E030E048EC52E40E9434
S11303B0D1030E940D0380E189838A81887F8A8327
S11303C088E08B87CB826C831D821E821F821886F5
S11303D019861A86CE0101960E9494002B960FB6B8
S11303E0F894DEBF0FBECDBFDF91CF91FF90EF90A9
S11303F0DF90CF90BF90AF909F908F90089560E072
S113040074E284EF90E00E94770278940E945E0088
S11304101DB81EB80895CF93DF9300D0CDB7DEB7D3
S11304201A8219820E94FF0180E090E0C12CD12C35
S1130430760101C0C8010CB1007110E0011511056D
S113044039F0892B29F489819A8101969A838983C9
S11304500E949002DC01CB018C199D09AE09BF09F1
S1130460883E9340A105B10528F369817A81072E5E
S1130470000C880B990B0E9445032BE13FE24DE5EC
S11304805FE30E94D10326E636E646E650E40E9486
S1130490D1031A8219820E94AF010E9490026B015B
S11304A07C01C8CF1F920F920FB60F9211248F9325
S11304B09F93AF93BF938091DE019091DF01A09150
S11304C0E001B091E1010196A11DB11D8093DE010F
S11304D09093DF01A093E001B093E101BF91AF914C
S11304E09F918F910F900FBE0F901F90189520E44D
S11304F03FE140E050E00E945204E1E8F0E08081F6
S11305008A608083BB27A52F942F832F8093890033
S113051020938800EFE6F0E0808182608083089574
S1130520F89421E009C06091DE017091DF018091AF
S1130530E0019091E10120E02111F5CF7894089534
S11305405058BB27AA270E94B8020C9497030E9414
S1130550890338F00E94900320F039F49F3F19F486
S113056026F40C9486030EF4E095E7FB0C948003C8
S1130570E92F0E94A80358F3BA1762077307840788
S1130580950720F079F4A6F50C94CA030EF4E095CF
S11305900B2EBA2FA02D0B01B90190010C01CA0139
S11305A0A0011124FF27591B99F0593F50F4503EE4
S11305B068F11A16F040A22F232F342F4427585FD6
S11305C0F3CF469537952795A795F0405395C9F7EE
S11305D07EF41F16BA0B620B730B840BBAF09150A6
S11305E0A1F0FF0FBB1F661F771F881FC2F70EC045
S11305F0BA0F621F731F841F48F487957795679518
S1130600B795F7959E3F08F0B0CF9395880F08F003
S11306109927EE0F9795879508950E94140368947F
S1130620B1110C94CB0308950E94B00388F09F5736
S113063098F0B92F9927B751B0F0E1F0660F771F02
S1130640881F991F1AF0BA95C9F714C0B13091F0F8
S11306500E94CA03B1E008950C94CA03672F782F4F
S11306608827B85F39F0B93FCCF3869577956795BD
S1130670B395D9F73EF490958095709561957F4F29
S11306808F4F9F4F0895E89409C097FB3EF49095CF
S11306908095709561957F4F8F4F9F4F9923A9F057
S11306A0F92F96E9BB279395F695879577956795E6
S11306B0B795F111F8CFFAF4BB0F11F460FF1BC02A
S11306C06F5F7F4F8F4F9F4F16C0882311F096E9BD
S11306D011C0772321F09EE8872F762F05C066236B
S11306E071F096E8862F70E060E02AF09A95660F24
S11306F0771F881FDAF7880F9695879597F90895DD
S113070097F99F6780E870E060E008959FEF80ECC0
S1130710089500240A941616170618060906089563
S113072000240A9412161306140605060895092EC9
S11307300394000C11F4882352F0BB0F40F4BF2B38
S113074011F460FF04C06F5F7F4F8F4F9F4F089578
S113075057FD9058440F551F59F05F3F71F047956E
S1130760880F97FB991F61F09F3F79F08795089553
S1130770121613061406551FF2CF4695F1DF08C072
S1130780161617061806991FF1CF8695710561058F
S113079008940895E894BB2766277727CB0197F937
S11307A008950E94E4030C9497030E94890338F08F
S11307B00E94900320F0952311F00C9480030C9474
S11307C0860311240C94CB030E94A80370F3959F15
S11307D0C1F3950F50E0551F629FF001729FBB2734
S11307E0F00DB11D639FAA27F00DB11DAA1F649FD0
S11307F06627B00DA11D661F829F2227B00DA11D83
S1130800621F739FB00DA11D621F839FA00D611D08
S1130810221F749F3327A00D611D231F849F600D29
S1130820211D822F762F6A2F11249F5750409AF052
S1130830F1F088234AF0EE0FFF1FBB1F661F771FDE
S1130840881F91505040A9F79E3F510580F00C94A9
S113085080030C94CB035F3FE4F3983ED4F3869576
S113086077956795B795F795E7959F5FC1F7FE2B49
S1130870880F911D9695879597F9089597FB072EF4
S113088016F4009407D077FD09D00E94740407FC85
S113089005D03EF4909581959F4F0895709561958C
S11308A07F4F0895A1E21A2EAA1BBB1BFD010DC0A8
S11308B0AA1FBB1FEE1FFF1FA217B307E407F5070C
S11308C020F0A21BB30BE40BF50B661F771F881FE8
S11308D0991F1A9469F760957095809590959B017E
S11308E0AC01BD01CF010895AA1BBB1B51E107C098
S11308F0AA1FBB1FA617B70710F0A61BB70B881FAC
S1130900991F5A95A9F780959095BC01CD0108953A
S1070910F894FFCF85
S9030000FC
