S011000053445F6B61617274342E73726563D6
S11300000C944A000C9467000C9467000C946700ED
S11300100C9467000C9467000C9467000C946700C0
S11300200C9467000C9467000C9467000C946700B0
S11300300C9467000C9467000C9467000C946700A0
S11300400C9467000C9467000C9467000C94670090
S11300500C9467000C9467000C9467000C94670080
S11300600C9467000C9467000C9467000C94670070
S11300700C9467000C9467000C9467000C94670060
S11300800C9467000C9467000C9467000C94670050
S11300900C94670011241FBECFEFD8E0DEBFCDBFA4
S11300A011E0A0E0B1E0E2E7F4E002C005900D92B7
S11300B0A030B107D9F721E0A0E0B1E001C01D9262
S11300C0A330B207E1F70E9435020C9437020C9476
S11300D0000086E184B984B184B981E58CBD0895BA
S11300E08EBD0DB407FEFDCF8EB508950E9470003D
S11300F008958FEF0E9470000895FF920F931F934D
S1130100CF93DF93C82FD42F152F062FF72E8823D4
S11301104CF4CF7740E050E0BA0187E70E947D00BD
S1130120823050F585B1826085B90E94790085B12D
S11301308D7F85B90E9479008C2F0E9476008F2DC7
S11301400E947600802F0E947600812F0E94760004
S11301508D2F0E947600C03411F081E001C085E942
S1130160C83409F487E80E947600CAE00E94790046
S1130170882314F4C150D1F7DF91CF911F910F91CF
S1130180FF9008950F931F93CF93DF93FC01892B66
S1130190F1F0EA0111C08F010F5F1F4F80810E94AF
S11301A076008091000190910101019790930101E3
S11301B0809300012197F801209709F45FC0809192
S11301C0000190910101892B31F7C0E05AC041151B
S11301D051056105710501F18091020183FD09C09A
S11301E0032E39E0440F551F661F771F3A95D1F748
S11301F0302D88E50E947D00811142C08FEF0E945E
S113020076008EEF0E94760080E092E090930101E8
S113021080930001C0E035C08091000190910101FC
S1130220029604C080E00E947600CE01EC01219782
S1130230892BC1F70E947900C82F8F3FD9F38F71A2
S11302408530B1F409C08FE891E00197F1F700C05F
S113025000000150110902C008E813E10E9479006E
S11302608F3F19F00115110571F7012B09F0C0E05A
S113027085B1826085B90E94790003C0C0E001C0E5
S1130280C1E08C2FDF91CF911F910F910895EF92D0
S1130290FF920F931F93CF93DF9300D000D0CDB77D
S11302A0DEB780910201882359F0209B09C0289968
S11302B007C040E050E0BA0180E090E00E94C20034
S11302C00E94690085B1826085B91AE003C00E946A
S11302D0790011501111FBCF40E050E0BA0180E4E5
S11302E00E947D00813009F09BC04AEA51E060E041
S11302F070E088E40E947D00813009F059C00DC08F
S1130300E02EF12C0E947900E1E0F0E0EC0FFD1FFB
S1130310EE0DFF1D80830F5F01C0012F043080F3B9
S11303208B81813009F07EC08C818A3A61F0F12C96
S113033084C08FE891E00197F1F700C0000091E0DC
S1130340E91AF10806C00F2EF0E1EF2EF7E2FF2EB6
S1130350F02DE114F10449F040E050E060E070E475
S113036089EE0E947D008111E4CFEF2809F45CC07E
S113037040E050E0BA018AE70E947D00882371F0D2
S1130380F12C5BC0E12EF12C0E947900E1E0F0E059
S1130390EC0FFD1FEE0DFF1D80831F5F143090F3E3
S11303A0898186FF43C00F2EFCE0FF2EF02D45C04F
S11303B040E050E0BA0189EE0E947D00823040F4B2
S11303C06894FF24F1F80F2EF9EEEF2EF02D06C0FD
S11303D0FF24F3940F2EF1E4EF2EF02D00E117E249
S11303E008C08FE891E00197F1F700C000000150C8
S11303F011090115110541F040E050E0BA018E2DBC
S11304000E947D008111EDCF012BA1F040E052E06C
S113041060E070E080E50E947D0081110DC00DC098
S1130420F12C0BC0F12C09C0F12C07C06894FF24F7
S1130430F2F803C0F12C01C0F12CF092020185B155
S1130440826085B90E94790081E0F11080E00F900C
S11304500F900F900F90DF91CF911F910F91FF900C
S1130460EF9008950E944701FDCF0E943202F89454
S1050470FFCFB8
S9030000FC
