S011000053445F6B61617274342E73726563D6
S11300000C944A000C9467000C9467000C946700ED
S11300100C9467000C9467000C9467000C946700C0
S11300200C9467000C9467000C94DD030C94670037
S11300300C9467000C9467000C9467000C946700A0
S11300400C9467000C9467000C94FC000C946700FB
S11300500C9467000C9467000C9467000C94670080
S11300600C9467000C9467000C9467000C94670070
S11300700C9467000C9467000C9467000C94670060
S11300800C9467000C9467000C9467000C94670050
S11300900C94670011241FBECFEFD8E0DEBFCDBFA4
S11300A011E0A0E0B1E0E0EBFBE102C005900D92AD
S11300B0A03AB107D9F726E0A0EAB1E001C01D9249
S11300C0A83BB207E1F70E9412050C94D60D0C94DC
S11300D00000E8EDF0E080818160808386E0809319
S11300E0E20084E08093E30083E18093E40080E015
S11300F008C0982F9295907F9093ED001092EF0096
S11301008F5F8F30B0F378941092DA0080EB809395
S1130110DB00E8EDF0E0808182608083089580E078
S11301200AC0982F9295907F9093ED009091EF00E4
S1130130907C21F08F5F8F30A0F38FEF08951F9391
S1130140CF93DF93EC01162F0E948F008F3F09F4A9
S11301504EC0EDEEF0E09081482F50E09A012295D8
S11301603295307F3227207F3227292B208310922B
S1130170F0001092F1009C2F9295990F907E90932D
S1130180F200D695C795D695C795D695C795C093D1
S1130190F300193008F018E0EFEEF0E06081612B15
S11301A06083883078F4EEEDF0E0408121E030E0C7
S11301B0B90102C0660F771F8A95E2F7CB01842B41
S11301C080830EC0EFEDF0E020814850510981E0BA
S11301D090E002C0880F991F4A95E2F7822B808332
S11301E0EFEEF0E080818068808381E001C080E0F0
S11301F0DF91CF911F9108951F920F920FB60F9226
S113020011242F933F934F935F936F937F938F9317
S11302109F93AF93BF93CF93EF93FF93C091ED0060
S113022087C08091EC00807F8093ED008091EE0088
S113023086FF0CC01092EE001092EF008091ED004A
S1130240EEEDF0E080818E7F808372C08091EE00BD
S113025085FF62C08091EF0084FF0EC08091F000A2
S11302608695869586954091F1004F7790E2499F57
S1130270A0011124482B0FC08091F200829586952D
S113028087704091F30050E0440F551F440F551FF1
S1130290440F551F482B2091A10130E08BE0829F31
S11302A0F001839FF00D1124EE54FA4F4083952FF3
S11302B097708181887F892B81838091EF008F7073
S11302C0828790E00EC08091FA004BE0429FF001DB
S11302D0439FF00D1124EE54FA4FE90FF11D828370
S11302E09F5F8BE0829FF001839FF00D1124EE54F9
S11302F0FA4F8285981738F3C901019664E170E0DA
S11303000E94720D8093A1011092EE00EFEEF0E0D6
S11303108081806880830CC08091DA0090E08F77C0
S1130320892B31F0EAEDF0E080818093A001108206
S11303308091EC0082958F708F3009F072CFC0935A
S1130340ED00FF91EF91CF91BF91AF919F918F916C
S11303507F916F915F914F913F912F910F900FBEBD
S11303600F901F90189584B1876084B985B1886017
S113037085B98CB581658CBD85B1816085B90895D9
S113038095B19E7F95B98EBD0DB407FEFDCF85B1A5
S1130390816085B98EB508958FEF0E94C0010895DC
S11303A0FF920F931F93CF93DF93C82FD42F152F52
S11303B0062FF72E88234CF4CF7740E050E0BA01A3
S11303C087E70E94D001823050F585B1816085B9FC
S11303D00E94CC0185B18E7F85B90E94CC018C2FFF
S11303E00E94C0018F2D0E94C001802F0E94C00175
S11303F0812F0E94C0018D2F0E94C001C03411F0D2
S113040081E001C085E9C83409F487E80E94C0018D
S1130410CAE00E94CC01882314F4C150D1F7DF91C3
S1130420CF911F910F91FF900895EF92FF920F9338
S11304301F93CF93DF9300D000D0CDB7DEB7809168
S1130440A401811184B10E94B30185B1816085B991
S11304501AE003C00E94CC0111501111FBCF40E0FF
S113046050E0BA0180E40E94D001813009F09BC0C1
S11304704AEA51E060E070E088E40E94D0018130F3
S113048009F059C00DC0E02EF12C0E94CC01E1E02E
S1130490F0E0EC0FFD1FEE0DFF1D80830F5F01C028
S11304A0012F043080F38B81813009F07EC08C8170
S11304B08A3A61F0F12C84C08FE891E00197F1F75A
S11304C000C0000091E0E91AF10806C00F2EF0E127
S11304D0EF2EF7E2FF2EF02DE114F10449F040E095
S11304E050E060E070E489EE0E94D0018111E4CF15
S11304F0EF2809F45CC040E050E0BA018AE70E94AA
S1130500D001882371F0F12C5BC0E12EF12C0E9404
S1130510CC01E1E0F0E0EC0FFD1FEE0DFF1D808348
S11305201F5F143090F3898186FF43C00F2EFCE0D7
S1130530FF2EF02D45C040E050E0BA0189EE0E9444
S1130540D001823040F46894FF24F1F80F2EF9EEC4
S1130550EF2EF02D06C0FF24F3940F2EF1E4EF2EBE
S1130560F02D00E117E208C08FE891E00197F1F760
S113057000C00000015011090115110541F040E0CF
S113058050E0BA018E2D0E94D0018111EDCF012BD4
S1130590A1F040E052E060E070E080E50E94D0010C
S11305A081110DC00DC0F12C0BC0F12C09C0F12C30
S11305B007C06894FF24F2F803C0F12C01C0F12CA9
S11305C0F092A40185B1816085B90E94CC0181E0DB
S11305D0F11080E00F900F900F900F90DF91CF916A
S11305E01F910F91FF90EF900895AF92BF92CF9219
S11305F0DF92EF92FF920F931F93CF93DF936C01DF
S113060079018091A40183FD09C0032E39E0440FD0
S1130610551F661F771F3A95D1F7302D81E50E944B
S1130620D001811131C00E94CC018F3FE1F38E3F94
S113063069F5CC27DD27CE19DF09C01BD10BCE5FAE
S1130640DD4F03C00E94CC017501570181E0A81A57
S1130650B108EF28B9F7C114D10469F07601EFEFBE
S1130660EE1AFE0A0E94CC01F601808301501109A2
S11306706701A1F703C001501109E9F70E94CC01F9
S11306802197E1F7C0E003C0C1E001C0C1E085B13A
S1130690816085B90E94CC018C2FDF91CF911F918D
S11306A00F91FF90EF90DF90CF90BF90AF9008959F
S11306B00F931F93CF93DF93FC01892BF1F0EA0191
S11306C011C08F010F5F1F4F80810E94C001809174
S11306D0A2019091A30101979093A3018093A20199
S11306E02197F801209709F45FC08091A2019091AD
S11306F0A301892B31F7C0E05AC0411551056105AA
S1130700710501F18091A40183FD09C0032E39E034
S1130710440F551F661F771F3A95D1F7302D88E592
S11307200E94D001811142C08FEF0E94C0018EEF60
S11307300E94C00180E092E09093A3018093A20103
S1130740C0E035C08091A2019091A301029604C03B
S113075080E00E94C001CE01EC012197892BC1F7F2
S11307600E94CC01C82F8F3FD9F38F718530B1F42B
S113077009C08FE891E00197F1F700C00000015033
S1130780110902C008E813E10E94CC018F3F19F05F
S11307900115110571F7012B09F0C0E085B18160E5
S11307A085B90E94CC0103C0C0E001C0C1E08C2F18
S11307B0DF91CF911F910F9108951F920F920FB661
S11307C00F9211248F939F938091AA019091AB0172
S11307D001969093AB018093AA011092B2009F916D
S11307E08F910F900FBE0F901F9018951092B2002A
S11307F087E08093B00081E0809370000895809139
S1130800AC019091AD019C012F5F3F4F3093AD013E
S11308102093AC01FC01E055FC4F2AE0208320E04A
S113082030E015C08091AC019091AD01AC014F5FF7
S11308305F4F5093AD014093AC01F901E050FF4F7D
S11308404081FC01E055FC4F40832F5F3F4F28302F
S1130850310544F320E030E040E312C08091AC0164
S11308609091AD01BC016F5F7F4F7093AD016093B8
S1130870AC01FC01E055FC4F40832F5F3F4F4F5FBD
S11308802A3031055CF38091AC019091AD01823E38
S113089091403CF01092AD011092AC0181E0809344
S11308A0A90108956091A5017091A6018091A70105
S11308B09091A8010E94470C4EEA51E060E072E07A
S11308C080EB93E00E943B0B4EEA51E060E070E065
S11308D080E090E00E943B0B6091A5017091A6011D
S11308E08091A7019091A8010E94470C4EEA51E023
S11308F060E072E080EB91E00E94580A0895CF9284
S1130900DF92EF92FF92CF93DF9300D01F92CDB787
S1130910DEB7198281E090E09B838A83C12CD12CBD
S11309207601C701B6010E94470CAE014E5F5F4FCE
S113093061E070E0CE0101960E94580A89818032FC
S113094079F082E0D80EE11CF11CC11488ECD806C1
S1130950E104F10430F360E070E080E090E004C072
S11309606C2D7D2D8E2D9F2D0F900F900F90DF916C
S1130970CF91FF90EF90DF90CF9008958091AC01DC
S11309809091AD019C012F5F3F4F3093AD012093B7
S1130990AC01FC01E055FC4F2AE0208320E030E06C
S11309A015C08091AC019091AD01AC014F5F5F4FD8
S11309B05093AD014093AC01F901E75FFE4F4081D4
S11309C0FC01E055FC4F40832F5F3F4F2E30310533
S11309D044F38091AC019091AD019C012F5F3F4F96
S11309E03093AD012093AC01FC01E055FC4F2AE0AB
S11309F0208308950E941502811107C080E58CBDF3
S1130A0081E08DBD80E090E002C081E090E001973C
S1130A1089F38EE896E00E94490888E191E00E94FB
S1130A20EA0908950E94FA0478940E94690068E033
S1130A3080E190E00E949F000E94F6030E947F04E0
S1130A406093A5017093A6018093A7019093A801D8
S1130A500E94BE048091AA019091AB01CD9734F01D
S1130A600E94FF031092AB011092AA018091A90188
S1130A70882381F30E94520498B181E0892788B9C0
S1130A808091A5019091A601A091A701B091A80120
S1130A909E5FAF4FBF4F8093A5019093A601A09393
S1130AA0A701B093A8011092A901D4CFFC0103C0FF
S1130AB06083AC013196CA010197452BC9F70895AB
S1130AC0CF93DF93DC01FB0180E090E002C0FB01E7
S1130AD0DE019A0121503109452B61F0ED01219687
S1130AE08C9190E0BF016F5F7F4F4081841B91091F
S1130AF0A90169F3DF91CF9108950F931F93E091BA
S1130B00B005F091B1059B01AC01225031094109B6
S1130B10510986819781A085B1850297A109B10900
S1130B20281739074A075B0768F4A281B0E00E94DE
S1130B30A80D0289138924893589600F711F821FCA
S1130B40931F03C060E070E0CB011F910F910895E3
S1130B500F931F93FC01658970E0762F66278489C3
S1130B60682BCB01A0E0B0E0BC0155274427838D5E
S1130B7090E0982F8827228D822BA0E0B0E08C0192
S1130B809D01042B152B262B372BC901B8011F916E
S1130B900F9108950F931F93CF93DF93FC01A091BE
S1130BA0B005B091B105118210826481758186818E
S1130BB09781613071058105910519F116960D91A2
S1130BC01D912D913C911997601771078207930726
S1130BD0D0F4611571058105910531F41E966D916E
S1130BE07D918D919C915197EF01608771878287E8
S1130BF093870E947D056C877D878E879F8780E021
S1130C0003C081E001C081E0DF91CF911F910F917A
S1130C1008950F931F93CF93DF93EB01FC0102819F
S1130C2013814BE050E060E270E0C8010E94560579
S1130C302881398190E080E058E001C0842F41E0B0
S1130C40480FF901E80FF11DE081E132F0F0EF32D5
S1130C50E1F0EE3211F0951738F05830B1F4EE327D
S1130C60A1F498E05BE0EACFEE2324F4F0E0E05650
S1130C70FF4FE0818FE98E0F8A3108F4E052D801EA
S1130C80A90FB11DEC939F5FD9CF240F311D398378
S1130C90288381E0E13208F080E0F801838780E076
S1130CA0DF91CF911F910F910895CF92DF92EF9230
S1130CB0FF920F931F93CF93DF93EC016A017B01A3
S1130CC002E010E02EEF31E00E94F50281111DC018
S1130CD0898190E0982F88272881822B85359A4A2C
S1130CE0B1F422E530E0B701A601CE010E94F5027D
S1130CF081110FC0898190E0982F88272881822B49
S1130D008634914441F081E007C083E005C082E06D
S1130D1003C081E001C080E0DF91CF911F910F916A
S1130D20FF90EF90DF90CF900895CF92DF92EF92F3
S1130D30FF920F931F93CF93DF9300D000D0CDB7D2
S1130D40DEB7E091B005F091B1056230710581051F
S1130D50910508F456C006811781208531856017F6
S1130D6071078207930708F051C02081233009F0EE
S1130D7052C0DC01CB019C012F773327C284D3847A
S1130D80E484F584689416F8B695A79597958795A5
S1130D901694D1F7220F331F220F331FB701A60178
S1130DA0480F591F6A1F7B1F04E010E0CE01019613
S1130DB00E94F502811134C08C8190E0A0E0B0E083
S1130DC0782F6627552744279B81892F90E0A0E040
S1130DD0B0E0DC0199278827842B952BA62BB72B11
S1130DE06A8170E0762F6627AB0160E070E0842BA7
S1130DF0952BA62BB72B2981822BBC01CD019F708B
S1130E0013C061E070E080E090E00EC061E070E04B
S1130E1080E090E009C061E070E080E090E004C010
S1130E2061E070E080E090E00F900F900F900F90E1
S1130E30DF91CF911F910F91FF90EF90DF90CF90B2
S1130E400895CF92DF92EF92FF920F931F93CF9367
S1130E50DF93E090B005F090B105FC01C081D18131
S1130E60219609F45CC044855585668577854115CE
S1130E7051056105710509F454C08C01CE018F70D0
S1130E809927892B09F046C04F5F5F4F6F4F7F4F03
S1130E904487558766877787408551856285738542
S1130EA0411551056105710539F4F7018481958176
S1130EB0C817D907C0F52EC0F701828190E00197C9
S1130EC09E01329522952F7023273F70232782237A
S1130ED09323892BF9F4CB01BA010E949506623061
S1130EE071058105910508F1F701C680D780E0847A
S1130EF0F1846C157D058E059F05C8F4F8016087A3
S1130F007187828793870E947D05F80164877587BE
S1130F1086879787F801D183C08380E009C083E086
S1130F2007C083E005C083E003C081E001C083E023
S1130F30DF91CF911F910F91FF90EF90DF90CF90B1
S1130F400895CF92DF92FF920F931F93CF93DF9375
S1130F50EC016B010E94CA05811137C028813981D7
S1130F602F703327220F331F22953295307F32277B
S1130F70207F32274C855D856E857F8500E210E0F9
S1130F80C6010E94F50291E0811101C090E0F92EA2
S1130F90911116C0F60180818823A1F0838583FD19
S1130FA009C06A817B814BE050E0C6010E94600564
S1130FB0892B51F0CE010E942107882379F205C0C4
S1130FC0892F03C083E001C08F2DDF91CF911F9142
S1130FD00F91FF90DF90CF900895EF92FF920F93BF
S1130FE01F93CF93DF9300D0CDB7DEB78C017B0185
S1130FF05A83498303C03196FA83E983E981FA81EC
S113100080818032C1F38F3219F43196FA83E983F7
S1131010D80114961D921D921D921C921797E98176
S1131020FA818081803230F4C8010E94CA05F70138
S1131030108226C0BE016F5F7F4FC8010E9409065F
S113104081111EC0B701C8010E94A107811118C0F7
S1131050D8011296ED91FC9113979385911110C0CC
S1131060F701838584FF0BC0C7010E94A805D8013E
S113107014966D937D938D939C931797DBCF83E0A8
S11310800F900F90DF91CF911F910F91FF90EF90F0
S113109008954F925F926F927F928F929F92AF9238
S11310A0BF92DF92EF92FF920F931F93CF93DF9340
S11310B0CDB7DEB7A8970FB6F894DEBF0FBECDBF8D
S11310C07C011092B1051092B0050E94150280FDBA
S11310D062C140E050E0BA01CE0101960E9455067B
S11310E0D82E21E0821338C000E110E02EEB31E06D
S11310F040E050E0BA01CE0101960E94F502811150
S11311002FC08D818823A1F18C84912CA12CB12C2A
S1131110B82CAA24992488249B85892F90E0A0E0E8
S1131120B0E0DC019927882788299929AA29BB29B5
S11311308A84912C982C8824A12CB12C882A992A51
S1131140AA2ABB2A8985882AB501A401CE01019661
S11311500E945506D82E0FC0812C912C54010BC02F
S1131160812C912C54010F2EF3E0DF2EF02D03C0BF
S1131170812C912C540143E0D41609F40EC1D110F2
S11311800EC104E210E02DE030E0B501A401CE016F
S113119001960E94F502811104C12B8530E0322FA3
S11311A022278A85282B40E050E02115310541058E
S11311B0510521F52B8D822F90E0A0E0B0E0782F2F
S11311C06627552744279A8D892F90E0A0E0B0E048
S11311D0DC0199278827842B952BA62BB72B298DE7
S11311E030E0322F2227A90160E070E0482B592B10
S11311F06A2B7B2B888D9A01AB01282BAC81B0E044
S11312000E94A80D6DA37EA38FA398A78B8190E065
S1131210982F88274A8150E0842B952B880E991E9D
S1131220A11CB11CD7011A968D929D92AD92BC92CD
S11312301D97A981F701A2838E8190E0982F8827BA
S11312402D81822B95838483088510E0102F00273D
S11312502F81022B20E030E0011511052105310515
S113126001F50F8910E020E030E0702E662455244B
S113127044240E8910E020E030E098011127002773
S1131280402A512A622A732A2D8930E0322F2227DC
S1131290890120E030E004291529262937296C89A1
S11312A0062BEB81F0E0FE2FEE274E2B5F2B041B69
S11312B0150B210931094DA15EA16FA178A5041B6D
S11312C0150B260B370B929582958F7089279F708B
S11312D089272C01612C712CC901B8016419750985
S11312E0860997092A2F30E040E050E00E94860DDD
S11312F0DA01C9010296A11DB11DF7018683978306
S1131300A087B187873F9F4FA105B10520F00F2E1D
S1131310F3E0DF2EF02DDD2009F445C0D701DC9287
S11313208BA190E0A0E0B0E0782F662755274427F2
S11313308AA190E0A0E0B0E0DC0199278827842B03
S1131340952BA62BB72B49A150E0542F442760E0DE
S113135070E0842B952BA62BB72B28A1822BF701A9
S113136086879787A08BB18B4DA15EA16FA178A5CD
S1131370840E951EA61EB71E840C951CA61CB71CB5
S1131380828A938AA48AB58A1182F092B105E09286
S1131390B00580E009C082E007C081E005C086E0B6
S11313A003C081E001C086E0A8960FB6F894DEBFC2
S11313B00FBECDBFDF91CF911F910F91FF90EF90A2
S11313C0DF90BF90AF909F908F907F906F905F90D1
S11313D04F9008950F931F93CF93DF93CDB7DEB74C
S11313E0EC970FB6F894DEBF0FBECDBF0091B005E9
S11313F01091B1050115110509F44AC0AC01F801B9
S11314001182CE0141969C838B83BE01635E7F4F24
S113141040970E94ED07811140C08D8D8823D1F142
S113142088A584FD39C0CE014D960E94A805F80117
S1131430668F778F80A391A38CAD90E0A0E0B0E09D
S1131440782F6627552744279BAD892F90E0A0E08D
S1131450B0E0DC0199278827842B952BA62BB72B8A
S11314604AAD50E0542F442760E070E0842B952B64
S1131470A62BB72B29AD822B828F938FA48FB58F88
S1131480168A178A108E118E81E0818380E005C050
S113149085E003C083E001C083E0EC960FB6F894C6
S11314A0DEBF0FBECDBFDF91CF911F910F91089585
S11314B06F927F928F929F92AF92BF92CF92DF9260
S11314C0EF92FF920F931F93CF93DF933C016B0135
S11314D04A01E090B005F090B105FA011182108242
S11314E0E114F10409F4B5C0F701818180FFB3C0B0
S11314F0828D938DA48DB58D46895789608D718DAC
S1131500841B950BA60BB70BA60160E070E0841753
S11315109507A607B70708F46C01530194C0F701B7
S113152086899789A08DB18DAC01BD015170662764
S11315307727452B462B472B09F048C0C281C15061
S1131540AC01BD01032E39E0769567955795479513
S11315503A95D1F7302DC423F1F4892B8A2B8B2BA8
S113156029F4668D778D80A191A107C0F70162A14E
S113157073A184A195A10E9495066230710581052D
S1131580910520F4F701118281E066C0F70162A39E
S113159073A384A395A3F70162A173A184A195A168
S11315A00E947D05611571058105910521F4F701FE
S11315B0118281E051C0DC01CB018C0F911DA11D72
S11315C0B11DF70186A397A3A0A7B1A7F701868948
S11315D09789A08DB18D9C013170C0E0D2E0C21B0F
S11315E0D30BCC16DD0608F4E601F70146A157A19A
S11315F060A571A56114710419F480E090E002C043
S11316008A2D9B2D8E010E94F502882321F0F7017B
S1131610118281E021C0F70186899789A08DB18D5F
S11316208C0F9D1FA11DB11D868B978BA08FB18F31
S1131630AC0EBD1ECC1ADD0AF40180819181C80F65
S1131640D91FD183C083C114D10409F068CF80E0CD
S113165003C085E001C084E0DF91CF911F910F9119
S1131660FF90EF90DF90CF90BF90AF909F908F90BE
S11316707F906F9008954F925F926F927F92AF9296
S1131680BF92CF92DF92EF92FF920F931F93CF936B
S1131690DF937C015B016A01C091B005D091B10573
S11316A0FA0111821082209709F4DFC0898180FF3A
S11316B0DEC0672B99F486FF0CC040E050E0BA010D
S11316C080E090E00E945803882319F0198281E099
S11316D0CFC089818F7B898380E0CAC086FD0AC020
S11316E08E899F89A88DB98D88279E7F8E8B9F8B2D
S11316F0A88FB98F8A8D9B8DAC8DBD8D4E895F89E6
S1131700688D798D841B950BA60BB70BA50160E042
S113171070E084179507A607B70708F0A0C05C011E
S11317209EC08E899F89A88DB98D9C013170232B11
S113173009F04EC01A811150AC01BD01032E39E0ED
S113174076956795579547953A95D1F7302D14239B
S1131750D9F4892B8A2B8B2B29F46E8D7F8D88A14C
S113176099A106C06AA17BA18CA19DA10E949506A6
S1131770623071058105910518F4198281E078C001
S11317806AA37BA38CA39DA36AA17BA18CA19DA129
S11317900E947D05611571058105910519F4198271
S11317A081E066C0AB01BC01410F511D611D711D7B
S11317B04EA35FA368A779A780E090E00E94580336
S11317C0882319F0198281E053C089818064898358
S11317D08E899F89A88DB98D917000E012E0081B55
S11317E0190BA016B10608F485012801612C712C8F
S11317F0B301A201C7010E945803882319F019827A
S113180081E036C08E899F89A88DB98D480E591EF6
S11318106A1E7B1E4E8A5F8A688E798EE00EF11EE8
S1131820A01AB10AF60180819181080F191F118352
S113183000838E899F89A88DB98D9170892B79F445
S113184040E050E0BA0180E090E00E945803882311
S113185019F0198281E00CC089818F7B8983A114DE
S1131860B10409F05ECF80E003C085E001C084E0EC
S1131870DF91CF911F910F91FF90EF90DF90CF9068
S1131880BF90AF907F906F905F904F9008954F926C
S11318905F926F927F928F929F92AF92BF92CF92FC
S11318A0DF92EF92FF92CF93DF9300D000D000D06D
S11318B0CDB7DEB72091B0053091B1053E832D83BD
S11318C02115310509F4F4C0D90111962C91119711
S11318D020FFF0C05A96CD90DD90ED90FC905D977E
S11318E0C616D706E806F90610F06B017C01ED81F7
S11318F0FE8146885788608C718C168A178A108EF0
S1131900118EC114D104E104F10409F4D5C082801C
S1131910912CA12CB12C072E79E0880C991CAA1CBF
S1131920BB1C7A95D1F7702D4114510461047104E4
S113193009F440C0C701B6016150710981099109D8
S1131940A50194010E94860D29833A834B835C830D
S1131950B1E04B1A510861087108C301B201A50135
S113196094010E94860D89819A81AB81BC81821782
S11319709307A407B507F0F088279927DC01881995
S11319809909AA09BB09482259226A227B22AD81FE
S1131990BE8156964D925D926D927C925997C41871
S11319A0D508E608F70892966D917D918D919C91EA
S11319B0959739C0ED81FE81668D778D80A191A1C7
S11319C062A373A384A395A32EC00E9495066230DC
S11319D071058105910558F0ED81FE81468057809F
S11319E060847184641575058605970530F0AD81B2
S11319F0BE8111961C9281E060C0ED81FE8162A3DC
S1131A0073A384A395A346885788608C718C480C73
S1131A10591C6A1C7B1C468A578A608E718EC818B2
S1131A20D908EA08FB088C149D04AE04BF0468F2CC
S1131A30ED81FE8186889788A08CB18CC80CD91C56
S1131A40EA1CFB1CC68AD78AE08EF18E0E947D05B3
S1131A50611571058105910529F4ED81FE811182DD
S1131A6081E02BC00B2EB9E0F694E794D794C79489
S1131A70BA95D1F7B02DAD81BE8112962C9130E08C
S1131A80215031094901330FAA08BB08C820D920C5
S1131A90EA20FB20DC01CB018C0D9D1DAE1DBF1D7A
S1131AA0ED81FE8186A397A3A0A7B1A780E005C01E
S1131AB085E003C084E001C080E026960FB6F89468
S1131AC0DEBF0FBECDBFDF91CF91FF90EF90DF90CF
S1131AD0CF90BF90AF909F908F907F906F905F90CA
S1131AE04F90089597FB072E16F4009407D077FDC6
S1131AF009D00E94B30D07FC05D03EF49095819562
S1131B009F4F0895709561957F4F0895A1E21A2E15
S1131B10AA1BBB1BFD010DC0AA1FBB1FEE1FFF1F8D
S1131B20A217B307E407F50720F0A21BB30BE40BDD
S1131B30F50B661F771F881F991F1A9469F7609524
S1131B407095809590959B01AC01BD01CF010895DE
S1131B500E94C70DA59F900DB49F900DA49F800D6A
S1131B60911D11240895AA1BBB1B51E107C0AA1F94
S1131B70BB1FA617B70710F0A61BB70B881F991F2A
S1131B805A95A9F780959095BC01CD010895A29F1F
S1131B90B001B39FC001A39F700D811D1124911D3D
S1131BA0B29F700D811D1124911D0895F894FFCFEB
S1131BB074657374656E3A20005354415254204C3A
S1131BC04F472048494552004C4F472E74787400C3
S1131BD0809A90418E418F804545454949498E8F71
S1131BE09092924F994F555559999A9B9C9D9E9FBF
S1131BF041494F55A5A5A6A7A8A9AAABAC21AEAF4C
S1131C00B0B1B2B3B4B5B6B7B8B9BABBBCBDBEBF58
S1131C10C0C1C2C3C4C5C6C7C8C9CACBCCCDCECF48
S1131C20D0D1D2D3D4D5D6D7D8D9DADBDCDDDEDF38
S1131C30E0E1E2E3E4E5E6E7E8E9EAEBECEDEEEF28
S1131C40F0F1F2F3F4F5F6F7F8F9FAFBFCFDFEFF18
S9030000FC
