S011000053445F6B61617274342E73726563D6
S11300000C944A000C9467000C9467000C946700ED
S11300100C9467000C9467000C9467000C946700C0
S11300200C9467000C9467000C9467000C946700B0
S11300300C9467000C9467000C9467000C946700A0
S11300400C9467000C9467000C9467000C94670090
S11300500C9467000C9467000C9467000C94670080
S11300600C9467000C9467000C9467000C94670070
S11300700C9467000C9467000C9467000C94670060
S11300800C9467000C9467000C9467000C94670050
S11300900C94670011241FBECFEFD8E0DEBFCDBFA4
S11300A011E0A0E0B1E0E4EEF6E102C005900D92AB
S11300B0A838B107D9F721E0A8E8B1E001C01D9242
S11300C0AE3CB207E1F70E94B9020C94700B0C9499
S11300D0000084B1876084B985B1886085B98CB526
S11300E081658CBD85B1816085B9089595B19E7F88
S11300F095B98EBD0DB407FEFDCF85B1816085B97C
S11301008EB508958FEF0E9476000895FF920F93A5
S11301101F93CF93DF93C82FD42F152F062FF72EBD
S113012088234CF4CF7740E050E0BA0187E70E947F
S11301308600823050F585B1816085B90E948200C5
S113014085B18E7F85B90E9482008C2F0E94760033
S11301508F2D0E947600802F0E947600812F0E94AE
S113016076008D2F0E947600C03411F081E001C02A
S113017085E9C83409F487E80E947600CAE00E9441
S11301808200882314F4C150D1F7DF91CF911F91DD
S11301900F91FF900895EF92FF920F931F93CF93C7
S11301A0DF9300D000D0CDB7DEB780918A018111F2
S11301B084B10E94690085B1816085B91AE003C0E9
S11301C00E94820011501111FBCF40E050E0BA01AF
S11301D080E40E948600813009F09BC04AEA51E025
S11301E060E070E088E40E948600813009F059C024
S11301F00DC0E02EF12C0E948200E1E0F0E0EC0F53
S1130200FD1FEE0DFF1D80830F5F01C0012F043021
S113021080F38B81813009F07EC08C818A3A61F051
S1130220F12C84C08FE891E00197F1F700C0000041
S113023091E0E91AF10806C00F2EF0E1EF2EF7E283
S1130240FF2EF02DE114F10449F040E050E060E0AD
S113025070E489EE0E9486008111E4CFEF2809F44E
S11302605CC040E050E0BA018AE70E94860088231F
S113027071F0F12C5BC0E12EF12C0E948200E1E0D0
S1130280F0E0EC0FFD1FEE0DFF1D80831F5F1430A7
S113029090F3898186FF43C00F2EFCE0FF2EF02DE2
S11302A045C040E050E0BA0189EE0E9486008230E9
S11302B040F46894FF24F1F80F2EF9EEEF2EF02DA0
S11302C006C0FF24F3940F2EF1E4EF2EF02D00E18D
S11302D017E208C08FE891E00197F1F700C0000031
S11302E0015011090115110541F040E050E0BA0137
S11302F08E2D0E9486008111EDCF012BA1F040E0EC
S113030052E060E070E080E50E94860081110DC03B
S11303100DC0F12C0BC0F12C09C0F12C07C068945E
S1130320FF24F2F803C0F12C01C0F12CF0928A01F1
S113033085B1816085B90E94820081E0F11080E07E
S11303400F900F900F900F90DF91CF911F910F910D
S1130350FF90EF900895AF92BF92CF92DF92EF9209
S1130360FF920F931F93CF93DF936C0179018091D8
S11303708A0183FD09C0032E39E0440F551F661F0F
S1130380771F3A95D1F7302D81E50E9486008111BF
S113039031C00E9482008F3FE1F38E3F69F5CC2784
S11303A0DD27CE19DF09C01BD10BCE5FDD4F03C0A3
S11303B00E9482007501570181E0A81AB108EF2854
S11303C0B9F7C114D10469F07601EFEFEE1AFE0A11
S11303D00E948200F6018083015011096701A1F790
S11303E003C001501109E9F70E9482002197E1F747
S11303F0C0E003C0C1E001C0C1E085B1816085B93E
S11304000E9482008C2FDF91CF911F910F91FF905A
S1130410EF90DF90CF90BF90AF9008950F931F930C
S1130420CF93DF93FC01892BF1F0EA0111C08F0116
S11304300F5F1F4F80810E94760080918801909108
S11304408901019790938901809388012197F8018C
S1130450209709F45FC08091880190918901892BCC
S113046031F7C0E05AC0411551056105710501F12C
S113047080918A0183FD09C0032E39E0440F551F82
S1130480661F771F3A95D1F7302D88E50E948600C4
S1130490811142C08FEF0E9476008EEF0E94760099
S11304A080E092E09093890180938801C0E035C098
S11304B08091880190918901029604C080E00E9495
S11304C07600CE01EC012197892BC1F70E948200AE
S11304D0C82F8F3FD9F38F718530B1F409C08FE8ED
S11304E091E00197F1F700C000000150110902C02A
S11304F008E813E10E9482008F3F19F001151105ED
S113050071F7012B09F0C0E085B1816085B90E94C3
S1130510820003C0C0E001C0C1E08C2FDF91CF9105
S11305201F910F91089580E090E006C0FC01E85609
S1130530FE4F25E3208301968A309105BCF308958C
S11305400E94CB00811108C018B880E58CBD81E001
S11305508DBD80E090E002C081E090E0019781F3DE
S113056084EA91E00E940B0680E091E00E94AC07CF
S1130570089518B80E94A0020E94930260E070E0FF
S1130580CB010E94090A4CE851E06AE070E088E976
S113059091E00E94FD0880918C0190918D010A9751
S11305A018F481E080938B014CE851E060E070E046
S11305B080E090E00E94FD0860E070E0CB010E94C2
S11305C0090A4CE851E06AE070E08EE891E00E948C
S11305D01A0812C0FC01E856FE4F3081FC01E257B4
S11305E0FE4F2081321719F081E088B9FDCF0197C1
S11305F090938D0180938C0180918C0190918D0159
S1130600009741F781E088B92FEF8DE399E42150F9
S113061080409040E1F700C0000018B82FEF8DE350
S113062099E4215080409040E1F700C00000EACFF7
S1130630FC0103C06083AC013196CA010197452BCC
S1130640C9F70895CF93DF93DC01FB0180E090E0CC
S113065002C0FB01DE019A0121503109452B61F0F2
S1130660ED0121968C9190E0BF016F5F7F4F408137
S1130670841B9109A90169F3DF91CF9108950F9328
S11306801F93E091A201F091A3019B01AC012250C0
S113069031094109510986819781A085B185029765
S11306A0A109B109281739074A075B0768F4A28131
S11306B0B0E00E94560B0289138924893589600FA2
S11306C0711F821F931F03C060E070E0CB011F9174
S11306D00F9108950F931F93FC01658970E0762FA5
S11306E066278489682BCB01A0E0B0E0BC015527C4
S11306F04427838D90E0982F8827228D822BA0E0B9
S1130700B0E08C019D01042B152B262B372BC9013E
S1130710B8011F910F9108950F931F93CF93DF9307
S1130720FC01A091A201B091A30111821082648105
S1130730758186819781613071058105910519F173
S113074016960D911D912D913C9119976017710783
S113075082079307D0F4611571058105910531F481
S11307601E966D917D918D919C915197EF016087BB
S11307707187828793870E943F036C877D878E876A
S11307809F8780E003C081E001C081E0DF91CF91C9
S11307901F910F9108950F931F93CF93DF93EB0154
S11307A0FC01028113814BE050E060E270E0C8017B
S11307B00E9418032881398190E080E058E001C04C
S11307C0842F41E0480FF901E80FF11DE081E13287
S11307D0F0F0EF32E1F0EE3211F0951738F05830C6
S11307E0B1F4EE32A1F498E05BE0EACFEE2324F416
S11307F0F0E0E857FF4FE0818FE98E0F8A3108F46B
S1130800E052D801A90FB11DEC939F5FD9CF240FFB
S1130810311D3983288381E0E13208F080E0F8015A
S1130820838780E0DF91CF911F910F910895CF923C
S1130830DF92EF92FF920F931F93CF93DF93EC011C
S11308406A017B0102E010E02EEF31E00E94AB016F
S113085081111DC0898190E0982F88272881822BDF
S113086085359A4AB1F422E530E0B701A601CE01FC
S11308700E94AB0181110FC0898190E0982F8827D5
S11308802881822B8634914441F081E007C083E0C3
S113089005C082E003C081E001C080E0DF91CF9118
S11308A01F910F91FF90EF90DF90CF900895CF921A
S11308B0DF92EF92FF920F931F93CF93DF9300D0B9
S11308C000D0CDB7DEB7E091A201F091A301623070
S11308D071058105910508F456C0068117812085AC
S11308E03185601771078207930708F051C0208192
S11308F0233009F052C0DC01CB019C012F77332750
S1130900C284D384E484F584689416F8B695A795D4
S1130910979587951694D1F7220F331F220F331F13
S1130920B701A601480F591F6A1F7B1F04E010E09E
S1130930CE0101960E94AB01811134C08C8190E0FC
S1130940A0E0B0E0782F6627552744279B81892FA4
S113095090E0A0E0B0E0DC0199278827842B952B58
S1130960A62BB72B6A8170E0762F6627AB0160E077
S113097070E0842B952BA62BB72B2981822BBC01ED
S1130980CD019F7013C061E070E080E090E00EC084
S113099061E070E080E090E009C061E070E080E038
S11309A090E004C061E070E080E090E00F900F9070
S11309B00F900F90DF91CF911F910F91FF90EF90C7
S11309C0DF90CF900895CF92DF92EF92FF920F9332
S11309D01F93CF93DF93E090A201F090A301FC0159
S11309E0C081D181219609F45CC044855585668512
S11309F07785411551056105710509F454C08C01D1
S1130A00CE018F709927892B09F046C04F5F5F4F45
S1130A106F4F7F4F44875587668777874085518519
S1130A2062857385411551056105710539F4F70136
S1130A3084819581C817D907C0F52EC0F70182813A
S1130A4090E001979E01329522952F7023273F70E5
S1130A50232782239323892BF9F4CB01BA010E9423
S1130A605704623071058105910508F1F701C680CC
S1130A70D780E084F1846C157D058E059F05C8F44C
S1130A80F80160877187828793870E943F03F8018A
S1130A906487758786879787F801D183C08380E050
S1130AA009C083E007C083E005C083E003C081E0A0
S1130AB001C083E0DF91CF911F910F91FF90EF90E0
S1130AC0DF90CF900895CF92DF92FF920F931F9300
S1130AD0CF93DF93EC016B010E948C03811137C02B
S1130AE0288139812F703327220F331F22953295A5
S1130AF0307F3227207F32274C855D856E857F8548
S1130B0000E210E0C6010E94AB0191E0811101C036
S1130B1090E0F92E911116C0F60180818823A1F08E
S1130B20838583FD09C06A817B814BE050E0C60167
S1130B300E942203892B51F0CE010E94E3048823F2
S1130B4079F205C0892F03C083E001C08F2DDF91A6
S1130B50CF911F910F91FF90DF90CF900895EF9266
S1130B60FF920F931F93CF93DF9300D0CDB7DEB7DF
S1130B708C017B015A83498303C03196FA83E9834C
S1130B80E981FA8180818032C1F38F3219F4319680
S1130B90FA83E983D80114961D921D921D921C922A
S1130BA01797E981FA818081803230F4C8010E946C
S1130BB08C03F701108226C0BE016F5F7F4FC8010E
S1130BC00E94CB0381111EC0B701C8010E946305B6
S1130BD0811118C0D8011296ED91FC911397938559
S1130BE0911110C0F701838584FF0BC0C7010E94D7
S1130BF06A03D80114966D937D938D939C931797F4
S1130C00DBCF83E00F900F90DF91CF911F910F9175
S1130C10FF90EF9008954F925F926F927F928F9220
S1130C209F92AF92BF92DF92EF92FF920F931F9326
S1130C30CF93DF93CDB7DEB7A8970FB6F894DEBF96
S1130C400FBECDBF7C011092A3011092A2010E949D
S1130C50CB0080FD62C140E050E0BA01CE010196B4
S1130C600E941704D82E21E0821338C000E110E05E
S1130C702EEB31E040E050E0BA01CE0101960E9433
S1130C80AB0181112FC08D818823A1F18C84912C1B
S1130C90A12CB12CB82CAA24992488249B85892FB3
S1130CA090E0A0E0B0E0DC01992788278829992901
S1130CB0AA29BB298A84912C982C8824A12CB12C94
S1130CC0882A992AAA2ABB2A8985882AB501A401D7
S1130CD0CE0101960E941704D82E0FC0812C912CAE
S1130CE054010BC0812C912C54010F2EF3E0DF2E04
S1130CF0F02D03C0812C912C540143E0D41609F447
S1130D000EC1D1100EC104E210E02DE030E0B501B7
S1130D10A401CE0101960E94AB01811104C12B856F
S1130D2030E0322F22278A85282B40E050E021151D
S1130D3031054105510521F52B8D822F90E0A0E06E
S1130D40B0E0782F6627552744279A8D892F90E0A5
S1130D50A0E0B0E0DC0199278827842B952BA62BF3
S1130D60B72B298D30E0322F2227A90160E070E0F3
S1130D70482B592B6A2B7B2B888D9A01AB01282B8E
S1130D80AC81B0E00E94560B6DA37EA38FA398A7FD
S1130D908B8190E0982F88274A8150E0842B952BF3
S1130DA0880E991EA11CB11CD7011A968D929D9292
S1130DB0AD92BC921D97A981F701A2838E8190E028
S1130DC0982F88272D81822B95838483088510E0B2
S1130DD0102F00272F81022B20E030E00115110590
S1130DE02105310501F50F8910E020E030E0702E77
S1130DF06624552444240E8910E020E030E0980154
S1130E0011270027402A512A622A732A2D8930E0AB
S1130E10322F2227890120E030E0042915292629D0
S1130E2037296C89062BEB81F0E0FE2FEE274E2B41
S1130E305F2B041B150B210931094DA15EA16FA184
S1130E4078A5041B150B260B370B929582958F7092
S1130E5089279F7089272C01612C712CC901B80145
S1130E6064197509860997092A2F30E040E050E09B
S1130E700E94340BDA01C9010296A11DB11DF701CC
S1130E8086839783A087B187873F9F4FA105B105CC
S1130E9020F00F2EF3E0DF2EF02DDD2009F445C005
S1130EA0D701DC928BA190E0A0E0B0E0782F662718
S1130EB0552744278AA190E0A0E0B0E0DC019927FF
S1130EC08827842B952BA62BB72B49A150E0542FB0
S1130ED0442760E070E0842B952BA62BB72B28A128
S1130EE0822BF70186879787A08BB18B4DA15EA1DA
S1130EF06FA178A5840E951EA61EB71E840C951CA2
S1130F00A61CB71C828A938AA48AB58A1182F0929D
S1130F10A301E092A20180E009C082E007C081E061
S1130F2005C086E003C081E001C086E0A8960FB644
S1130F30F894DEBF0FBECDBFDF91CF911F910F910B
S1130F40FF90EF90DF90BF90AF909F908F907F9035
S1130F506F905F904F9008950F931F93CF93DF93FB
S1130F60CDB7DEB7EC970FB6F894DEBF0FBECDBF9A
S1130F700091A2011091A3010115110509F44AC0C1
S1130F80AC01F8011182CE0141969C838B83BE0192
S1130F90635E7F4F40970E94AF05811140C08D8DE5
S1130FA08823D1F188A584FD39C0CE014D960E94D5
S1130FB06A03F801668F778F80A391A38CAD90E0CC
S1130FC0A0E0B0E0782F6627552744279BAD892FF2
S1130FD090E0A0E0B0E0DC0199278827842B952BD2
S1130FE0A62BB72B4AAD50E0542F442760E070E0A5
S1130FF0842B952BA62BB72B29AD822B828F938F15
S1131000A48FB58F168A178A108E118E81E0818382
S113101080E005C085E003C083E001C083E0EC9676
S11310200FB6F894DEBF0FBECDBFDF91CF911F91F5
S11310300F9108956F927F928F929F92AF92BF9279
S1131040CF92DF92EF92FF920F931F93CF93DF9390
S11310503C016B014A01E090A201F090A301FA0166
S113106011821082E114F10409F4B5C0F701818101
S113107080FFB3C0828D938DA48DB58D4689578929
S1131080608D718D841B950BA60BB70BA60160E0D8
S113109070E084179507A607B70708F46C0153019D
S11310A094C0F70186899789A08DB18DAC01BD01EB
S11310B0517066277727452B462B472B09F048C0EC
S11310C0C281C150AC01BD01032E39E0769567950C
S11310D0579547953A95D1F7302DC423F1F4892BD0
S11310E08A2B8B2B29F4668D778D80A191A107C063
S11310F0F70162A173A184A195A10E9457046230F3
S113110071058105910520F4F701118281E066C023
S1131110F70162A373A384A395A3F70162A173A14A
S113112084A195A10E943F03611571058105910574
S113113021F4F701118281E051C0DC01CB018C0F55
S1131140911DA11DB11DF70186A397A3A0A7B1A767
S1131150F70186899789A08DB18D9C013170C0E01B
S1131160D2E0C21BD30BCC16DD0608F4E601F7016E
S113117046A157A160A571A56114710419F480E01A
S113118090E002C08A2D9B2D8E010E94AB01882322
S113119021F0F701118281E021C0F7018689978946
S11311A0A08DB18D8C0F9D1FA11DB11D868B978BBA
S11311B0A08FB18FAC0EBD1ECC1ADD0AF401808164
S11311C09181C80FD91FD183C083C114D10409F000
S11311D068CF80E003C085E001C084E0DF91CF9157
S11311E01F910F91FF90EF90DF90CF90BF90AF9041
S11311F09F908F907F906F9008954F925F926F921F
S11312007F92AF92BF92CF92DF92EF92FF920F93B1
S11312101F93CF93DF937C015B016A01C091A2010C
S1131220D091A301FA0111821082209709F4DFC042
S1131230898180FFDEC0672B99F486FF0CC040E0F3
S113124050E0BA0180E090E00E940E02882319F079
S1131250198281E0CFC089818F7B898380E0CAC0F5
S113126086FD0AC08E899F89A88DB98D88279E7FA7
S11312708E8B9F8BA88FB98F8A8D9B8DAC8DBD8DE6
S11312804E895F89688D798D841B950BA60BB70BEE
S1131290A50160E070E084179507A607B70708F07A
S11312A0A0C05C019EC08E899F89A88DB98D9C01C8
S11312B03170232B09F04EC01A811150AC01BD01CD
S11312C0032E39E076956795579547953A95D1F76A
S11312D0302D1423D9F4892B8A2B8B2B29F46E8D72
S11312E07F8D88A199A106C06AA17BA18CA19DA133
S11312F00E945704623071058105910518F4198222
S113130081E078C06AA37BA38CA39DA36AA17BA17F
S11313108CA19DA10E943F03611571058105910572
S113132019F4198281E066C0AB01BC01410F511D63
S1131330611D711D4EA35FA368A779A780E090E0AB
S11313400E940E02882319F0198281E053C089811A
S1131350806489838E899F89A88DB98D917000E0FE
S113136012E0081B190BA016B10608F48501280128
S1131370612C712CB301A201C7010E940E028823C3
S113138019F0198281E036C08E899F89A88DB98DA4
S1131390480E591E6A1E7B1E4E8A5F8A688E798E9D
S11313A0E00EF11EA01AB10AF60180819181080FA6
S11313B0191F118300838E899F89A88DB98D91701F
S11313C0892B79F440E050E0BA0180E090E00E947B
S11313D00E02882319F0198281E00CC089818F7B69
S11313E08983A114B10409F05ECF80E003C085E0D5
S11313F001C084E0DF91CF911F910F91FF90EF9096
S1131400DF90CF90BF90AF907F906F905F904F90A0
S113141008954F925F926F927F928F929F92AF92B4
S1131420BF92CF92DF92EF92FF92CF93DF9300D0DF
S113143000D000D0CDB7DEB72091A2013091A30136
S11314403E832D832115310509F4F4C0D901119689
S11314502C91119720FFF0C05A96CD90DD90ED901D
S1131460FC905D97C616D706E806F90610F06B01E6
S11314707C01ED81FE8146885788608C718C168AC8
S1131480178A108E118EC114D104E104F10409F4F9
S1131490D5C08280912CA12CB12C072E79E0880C28
S11314A0991CAA1CBB1C7A95D1F7702D41145104C8
S11314B06104710409F440C0C701B60161507109A7
S11314C081099109A50194010E94340B29833A836F
S11314D04B835C83B1E04B1A510861087108C30166
S11314E0B201A50194010E94340B89819A81AB81D8
S11314F0BC8182179307A407B507F0F088279927C2
S1131500DC0188199909AA09BB09482259226A22CF
S11315107B22AD81BE8156964D925D926D927C92F6
S11315205997C418D508E608F70892966D917D91ED
S11315308D919C91959739C0ED81FE81668D778D53
S113154080A191A162A373A384A395A32EC00E943A
S11315505704623071058105910558F0ED81FE81D3
S113156046805780608471846415750586059705E7
S113157030F0AD81BE8111961C9281E060C0ED8196
S1131580FE8162A373A384A395A346885788608CC5
S1131590718C480C591C6A1C7B1C468A578A608EC5
S11315A0718EC818D908EA08FB088C149D04AE048F
S11315B0BF0468F2ED81FE8186889788A08CB18C87
S11315C0C80CD91CEA1CFB1CC68AD78AE08EF18E93
S11315D00E943F03611571058105910529F4ED8190
S11315E0FE81118281E02BC00B2EB9E0F694E794C2
S11315F0D794C794BA95D1F7B02DAD81BE81129618
S11316002C9130E0215031094901330FAA08BB085D
S1131610C820D920EA20FB20DC01CB018C0D9D1DC4
S1131620AE1DBF1DED81FE8186A397A3A0A7B1A720
S113163080E005C085E003C084E001C080E0269618
S11316400FB6F894DEBF0FBECDBFDF91CF91FF90F0
S1131650EF90DF90CF90BF90AF909F908F907F904E
S11316606F905F904F900895A1E21A2EAA1BBB1BA6
S1131670FD010DC0AA1FBB1FEE1FFF1FA217B3075A
S1131680E407F50720F0A21BB30BE40BF50B661F70
S1131690771F881F991F1A9469F760957095809534
S11316A090959B01AC01BD01CF0108950E94610B8F
S11316B0A59F900DB49F900DA49F800D911D1124A2
S11316C00895A29FB001B39FC001A39F700D811D17
S11316D01124911DB29F700D811D1124911D089537
S10716E0F894FFCFA8
S11316E44C4F472E74787400809A90418E418F80B9
S11316F44545454949498E8F9092924F994F555586
S113170459999A9B9C9D9E9F41494F55A5A5A6A76F
S1131714A8A9AAABAC21AEAFB0B1B2B3B4B5B6B755
S1131724B8B9BABBBCBDBEBFC0C1C2C3C4C5C6C7B9
S1131734C8C9CACBCCCDCECFD0D1D2D3D4D5D6D7A9
S1131744D8D9DADBDCDDDEDFE0E1E2E3E4E5E6E799
S1131754E8E9EAEBECEDEEEFF0F1F2F3F4F5F6F789
S10B1764F8F9FAFBFCFDFEFF9D
S9030000FC
