S01A00004661744673206C696272617279202D2053442E737265631D
S11300000C944A000C9467000C9467000C946700ED
S11300100C9467000C9467000C9467000C946700C0
S11300200C9467000C9467000C9467000C946700B0
S11300300C9467000C9467000C9467000C946D0595
S11300400C9467000C9467000C9467000C94670090
S11300500C9467000C9467000C9467000C94670080
S11300600C9467000C9467000C9467000C94670070
S11300700C9467000C9467000C9467000C94670060
S11300800C9467000C9467000C9467000C94670050
S11300900C94670011241FBECFEFD8E0DEBFCDBFA4
S11300A011E0A0E0B1E0ECEDF1E102C005900D92A9
S11300B0AA31B107D9F721E0AAE1B1E001C01D924C
S11300C0A232B207E1F70E94AC050C94EC080C9440
S11300D000000E94CB07811181E008950E94F6067A
S11300E008950F931F93CB01BA01A90198010E94AF
S11300F0CE07811184E01F910F9108950F931F93F0
S1130100CB01BA01A90198010E941C08811184E065
S11301101F910F9108950E948B080895FC0121817D
S113012030E0322F22278081A901482BCA0108958B
S1130130FC016381862F90E0A0E0B0E0BA2FA92FE4
S1130140982F88272281822BBA2FA92F982F8827AE
S11301502181822BBA2FA92F982F88272081BC01B7
S1130160CD01622B0895CF93DF93EC01A881B9816F
S1130170109731F1FD019F012F5F3F4F9081913224
S113018018F0F9019A33B9F79A33E9F44C9180EDF8
S1130190840F8A3040F412962A173B0739F450E052
S11301A04053510905C041E050E002C041E050E035
S11301B0141615065CF039832883842F952F08C004
S11301C08FEF9FEF05C080E090E002C08FEF9FEFBC
S11301D0DF91CF9108958F929F92AF92BF92EF9249
S11301E0FF920F931F93CF93DF93FC01238122236C
S11301F0D1F1EC017C01FFE2EF0EF11C2BA53CA533
S11302004DA55EA501E010E0B70189810E947E0042
S113021081112BC01B820BA51CA52DA53EA58F8D7E
S113022098A1A9A1BAA148015901881A990AAA0A50
S1130230BB0A8F89988DA98DBA8D88169906AA064E
S1130240BB06A8F46A816230A1F4A9019801280FC1
S1130250391F4A1F5B1F01E010E0B70189810E942A
S11302607E0080E007C080E005C081E003C080E03C
S113027001C080E0DF91CF911F910F91FF90EF902B
S1130280BF90AF909F908F9008958F929F92AF925E
S1130290BF92FF920F931F93CF93DF93EC014A0118
S11302A05B018BA59CA5ADA5BEA584179507A607E4
S11302B0B707E9F0CE010E94EB00F82E811118C0B7
S11302C001E010E0A5019401BE01615D7F4F8981C9
S11302D00E947100882331F0FF24F39488248A94C7
S11302E0982C54018BA69CA6ADA6BEA601C0F12CE9
S11302F08F2DDF91CF911F910F91FF90BF90AF9001
S11303009F908F900895EF92FF920F931F93CF9336
S1130310DF93EC011B828FEF9FEFDC018BA79CA77F
S1130320ADA7BEA7CE010E944501811171C0CE01C7
S1130330835D9D4F0E948E007C018FA58B3E29F02A
S1130340893E19F0883E09F05BC025E5E2162AEAE9
S1130350F20661F448E050E061E071E0CE018F57AD
S11303609F4F0E94DF08892B09F455C0CE01CA961D
S11303700E948E002CAD8C01015011090823192311
S113038001151105E9F5811532E09307C8F18130B3
S11303909240B0F52223A1F1822F90E09C012150DC
S11303A0310982239323892B59F5CE01CD960E94DE
S11303B08E00892B29F18FAD90E00197029700F50B
S11303C0CE01805C9F4F0E948E00892BC9F0CE0124
S11303D08E5B9F4F0E948E008038910550F4CE01B1
S11303E0815B9F4F0E9498006115710581409105C2
S11303F038F0CE018B5B9F4F0E948E00892B81F4D5
S113040035E5E3163AEAF30649F402E010E008C0E1
S113041004E010E005C000E010E002C003E010E0DA
S1130420C801DF91CF911F910F91FF90EF90089534
S1130430CF92DF92EF92FF920F931F93CF93DF93AC
S1130440CDB7DEB760970FB6F894DEBF0FBECDBF51
S11304506C017B0140E050E0BA010E9483018230CC
S1130460910569F118F4E114F10461F58330910503
S113047009F05BC021E028B958C0C8018295929563
S1130480907F9827807F98278A539E4F9601215DFD
S11304903F4F820F931F0E949800F801EE0FFF1F39
S11304A0EE0FFF1F21E030E02C0F3D1FE20FF31F82
S11304B060837183828393830F5F1F4F05C000E0C5
S11304C010E002C000E010E004301105B0F2E114C5
S11304D0F10421F087010150110902C000E010E08D
S11304E0F801EE0FFF1FEE0FFF1F81E090E08C0F6D
S11304F09D1FE80FF91F408151816281738141156D
S113050051056105710521F0C6010E94830102C0F5
S113051083E090E0E114F10441F48230910528F085
S11305200F5F1F4F04301105D8F260960FB6F89490
S1130530DEBF0FBECDBFDF91CF911F910F91FF9012
S1130540EF90DF90CF9008952F923F924F925F9259
S11305506F927F928F929F92AF92BF92CF92DF92CF
S1130560EF92FF920F931F93CF93DF93CDB7DEB734
S11305702E970FB6F894DEBF0FBECDBF7B01D42EED
S1130580DB011D921C920E94B3008C0199230CF490
S11305901CC2FC01EE0FFF1FE45EFE4F208131817F
S11305A03E872D872115310509F411C2D7012D93FA
S11305B03C93BD2DBE7FDB2EF9018081882361F041
S11305C081810E94690080FD07C0DD2009F401C219
S11305D082FD01C280E022C2AD85BE851C921196C7
S11305E00C93802F0E946E0080FDF7C1DD2011F076
S11305F082FDF5C160E070E08D859E850E94180241
S11306008430910509F4EDC1029708F0ECC1ED8541
S1130610FE8543A454A465A476A4CF01CA960E947F
S11306208E008115924009F0E0C18D859E858B5B1B
S11306309F4F0E948E004C01A12CB12C8114910477
S1130640A104B10441F48D859E858D5A9F4F0E946B
S113065098004B015C01AD85BE8557968D929D92A5
S1130660AD92BC925A97FD01A7ADA2838FEF8A0F7A
S1130670823008F0BCC1B0E0A50194010E94D40806
S11306806D837E838F83988704AD10E01287018782
S11306900115110509F4ADC1C80101978023912307
S11306A0892B09F0A8C1CF01805C9F4F0E948E0066
S11306B01C01AD85BE8518969C938E9317978F70F9
S11306C09927892B09F099C1CD018E5B9F4F0E9418
S11306D08E006C01E12CF12CC114D104E104F1046D
S11306E041F48D859E85815B9F4F0E9498006B012C
S11306F07C018D859E85CD960E948E00009709F41D
S11307007EC19C0140E050E029873A874B875C8793
S11307108D819E81AF81B885820F931FA41FB51F61
S11307209101329522952F7023273F702327AC0126
S1130730BD01420F531F611D711D49835A836B8391
S11307407C83C416D506E606F70608F45AC1C70129
S1130750B60129813A814B815C81621B730B840B46
S1130760950B980140E050E00E94A308DA01C9010A
S1130770211531054105510509F445C1263F6FEFA7
S1130780360746076FE0560718F000E010E002C095
S113079003E010E0863F7FEF9707A105B10510F451
S11307A002E010E0863F9F40A105B10510F401E08E
S11307B010E00115110509F428C169017A01F2E07C
S11307C0CF0ED11CE11CF11CAD85BE855396CD9294
S11307D0DD92ED92FC925697FD01438E548E658E08
S11307E0768E89859A85AB85BC85840D951DA61D5D
S11307F0B71D878F90A3A1A3B2A349815A816B81AE
S11308007C81440D551D661D771D47A350A761A724
S113081072A70330110511F5CF01875A9F4F0E942B
S11308208E00892B09F0F3C0232809F0F2C08D85CE
S11308309E85855A9F4F0E949800AD85BE859396EC
S11308406D937D938D939C939697CC0CDD1CEE1C3D
S1130850FF1CCC0CDD1CEE1CFF1C2EC0232809F44D
S1130860DAC02D813E814F815885820F931FA41FCA
S1130870B51FED85FE8583A394A3A5A3B6A302307B
S1130880110529F4CC0CDD1CEE1CFF1C15C0A3E0E3
S1130890B0E0A70196010E94D408DC01CB01B69513
S11308A0A79597958795F1E0CF22DD24EE24FF24C8
S11308B0C80ED91EEA1EFB1E2FEFC20E21E0D21E67
S11308C0E11CF11C0B2EB9E0F694E794D794C7947D
S11308D0BA95D1F7B02D8C149D04AE04BF0408F46E
S11308E09CC08FEF9FEFDC01ED85FE858787908BA1
S11308F0A18BB28B83879487A587B68780E884838E
S11309000330110509F04FC0CF01815A9F4F0E9457
S11309108E00019709F047C0B301A2014F5F5F4FFA
S11309206F4F7F4F8D859E850E94450181113BC08D
S1130930AD85BE8514961C921497CD01835D9D4FA1
S11309400E948E0085359A4A71F58D859E858F9615
S11309500E949800623572458146914421F58D8547
S11309609E858D5E9D4F0E94980062377247814438
S11309709146C9F48D859E85895E9D4F0E9498009D
S1130980AD85BE851F966D937D938D939C935297F1
S1130990CD01855E9D4F0E949800ED85FE8563879D
S11309A0748785879687AD85BE850C9380911A01DF
S11309B090911B01019690931B0180931A01169646
S11309C09C938E93159780E029C08BE027C08CE020
S11309D025C080E023C08AE021C083E01FC08AE0F4
S11309E01DC081E01BC08DE019C089E117C08AE1F8
S11309F015C08BE113C08BE111C08CE10FC08DE1F8
S1130A000DC08EE10BC08FE109C080E207C081E216
S1130A1005C082E203C083E201C084E22E960FB6D1
S1130A20F894DEBF0FBECDBFDF91CF911F910F9120
S1130A30FF90EF90DF90CF90BF90AF909F908F90FA
S1130A407F906F905F904F903F902F9008951F93E9
S1130A50CF93DF9300D000D000D0CDB7DEB79C8316
S1130A608B837E836D83142F7A836983CE010196F1
S1130A700E94B300992324F1FC01EE0FFF1FE45EF2
S1130A80FE4F0190F081E02D309709F01082EB8148
S1130A90FC81309709F01082880F991FFC01E45EF5
S1130AA0FE4F8B819C8191838083112359F040E018
S1130AB0BE016D5F7F4FCE0105960E94A40203C064
S1130AC08BE001C080E026960FB6F894DEBF0FBE1F
S1130AD0CDBFDF91CF911F9108951F920F920FB652
S1130AE00F9211242F933F934F935F936F937F93B0
S1130AF08F939F93AF93BF93EF93FF9381E69FEF01
S1130B0090938500809384000E948B00FF91EF9165
S1130B10BF91AF919F918F917F916F915F914F9111
S1130B203F912F910F900FBE0F901F901895E1E603
S1130B30F0E080E88083108281E69FEF9093850047
S1130B40809384001092800085E08093810081E08E
S1130B5080936F0078940895CF93DF93CDB7DEB779
S1130B60CF52D2400FB6F894DEBF0FBECDBF0E9465
S1130B70970541E069E071E0CE0101960E942705E6
S1130B80FFCF95B19E7F95B98EBD0DB407FEFDCF05
S1130B9085B1816085B98EB50895FC0101C0F90164
S1130BA08FEF8EBD0DB407FEFDCF8EB580838FEF22
S1130BB08EBD0DB407FEFDCF9F012E5F3F4F8EB556
S1130BC081836250710959F70895FC0101C0F9014C
S1130BD080818EBD0DB407FEFDCF9F012E5F3F4F78
S1130BE081818EBD0DB407FEFDCF6250710979F786
S1130BF008959C01ADECBCEC0E94C50896958795C0
S1130C009695879596958795F8949093200180936F
S1130C101F0178948FEF0E94C105F89420911F0161
S1130C203091200178948F3F11F0232B99F791E0B4
S1130C308F3F09F090E0892F90E0089585B181609D
S1130C4085B98FEF0E94C1050895CF93DF9385B1D5
S1130C508E7F85B98FEF0E94C10584EF91E00E94D9
S1130C60F905EC01892B19F40E941E0602C0C1E0AB
S1130C70D0E0CE01DF91CF9108950F931F93CF93CE
S1130C80DF93EC018B0184E1809321018FEF0E94BB
S1130C90C1058F3F21F4909121019111F7CF8E3F2F
S1130CA069F4B801CE010E94CD058FEF0E94C10501
S1130CB08FEF0E94C10581E090E002C080E090E0E7
S1130CC0DF91CF911F910F9108950F931F93CF93AD
S1130CD08C01C62F84EF91E00E94F9050097E9F09A
S1130CE08C2F0E94C105CD3FB1F060E072E0C801D5
S1130CF00E94E5058FEF0E94C1058FEF0E94C10598
S1130D008FEF0E94C1058F7191E0853009F090E06A
S1130D10892F90E002C081E090E0CF911F910F9164
S1130D200895FF920F931F93CF93DF93C82FD42F6F
S1130D30152F062FF72E88234CF4CF7740E050E090
S1130D40BA0187E30E949106823088F5CC3031F0F5
S1130D500E941E060E942506892B41F18C2F806477
S1130D600E94C1058F2D0E94C105802F0E94C105DC
S1130D70812F0E94C1058D2F0E94C105CC2311F043
S1130D8081E001C085E9C83009F487E80E94C10503
S1130D90CC3019F48FEF0E94C105CAE08FEF0E9496
S1130DA0C105882324F4C150C9F701C08FEFDF9136
S1130DB0CF911F910F91FF9008958FE99FE00197C4
S1130DC0F1F700C0000084B1876084B985B1886000
S1130DD085B985B1816085B98CB580658CBD8CB5CC
S1130DE083608CBD8DB58E7F8DBD0895EF92FF928B
S1130DF00F931F93CF93DF9300D000D0CDB7DEB70E
S1130E0018B88AE080932101809121018111FCCFDF
S1130E108091000181FF03C080910001B1C00E9454
S1130E20DD068CB583608CBD8DB58E7F8DBD1AE0DB
S1130E3004C08FEF0E94C10511501111FACF40E098
S1130E4050E0BA0180E00E949106813009F07EC032
S1130E5084E6809321014AEA51E060E070E088E092
S1130E600E949106813009F04AC00EC0E02EF12C98
S1130E708FEF0E94C105E1E0F0E0EC0FFD1FEE0DE5
S1130E80FF1D80830F5F01C0012F043078F38B8135
S1130E90813009F05DC08C818A3A09F05BC0809191
S1130EA02101882349F040E050E060E070E489EAE1
S1130EB00E9491068111F3CF80912101882309F4C6
S1130EC04BC040E050E0BA018AE30E9491068823B7
S1130ED079F010E048C0E12EF12C8FEF0E94C1059B
S1130EE0E1E0F0E0EC0FFD1FEE0DFF1D80831F5FBE
S1130EF0143088F3898186FF31C018E134C040E0A2
S1130F0050E0BA0189EA0E949106823018F414E094
S1130F1009EA02C011E001E080912101882341F037
S1130F2040E050E0BA01802F0E9491068111F4CF75
S1130F30809121018823A1F040E052E060E070E05C
S1130F4080E10E94910681110DC00DC010E00BC01C
S1130F5010E009C010E007C010E005C018E003C0AD
S1130F6010E001C010E010931E010E941E06112320
S1130F7029F0809100018E7F80930001809100010F
S1130F800F900F900F900F90DF91CF911F910F91C1
S1130F90FF90EF900895809100010895FF920F93C0
S1130FA01F93CF93DF938C01E9012097E1F18091A6
S1130FB0000180FD3AC080911E0184FD09C0032E0A
S1130FC039E0440F551F661F771F3A95D1F7302D2E
S1130FD0C230D10528F00F2EF2E1FF2EF02D04C00F
S1130FE00F2EF1E1FF2EF02D8F2D0E94910681111D
S1130FF013C060E072E0C8010E943D06892B19F01D
S11310001E5F2197B1F782E1F81206C040E050E07C
S1131010BA018CE00E9491060E941E0681E0CD2B4D
S113102029F480E003C084E001C083E0DF91CF9124
S11310301F910F91FF900895CF92DF92EF92FF924C
S11310400F931F93CF93DF938C016A017B01E90116
S1131050209709F452C08091000180FD50C0809116
S1131060000182FD4EC080911E0184FD09C00B2E3B
S1131070B9E0CC0CDD1CEE1CFF1CBA95D1F7B02DE9
S1131080C130D10571F4B701A60188E10E9491062F
S113109081112CC06EEFC8010E946506892B09F5E9
S11310A025C08C7031F0AE0160E070E087E90E94E9
S11310B09106B701A60189E10E949106811116C02B
S11310C06CEFC8010E946506892B19F01E5F2197F9
S11310D0B9F76DEF80E090E00E946506892B21F05E
S11310E005C0C0E0D0E002C0C1E0D0E00E941E060E
S11310F081E0CD2B39F480E005C084E003C083E0B7
S113110001C082E0DF91CF911F910F91FF90EF908A
S1131110DF90CF90089580912101882319F08150A8
S11311208093210180911F0190912001009729F063
S113113001979093200180931F0180910001897F82
S1131140809300010895A1E21A2EAA1BBB1BFD0186
S11311500DC0AA1FBB1FEE1FFF1FA217B307E40792
S1131160F50720F0A21BB30BE40BF50B661F771FEA
S1131170881F991F1A9469F76095709580959095CA
S11311809B01AC01BD01CF010895A29FB001B39FA3
S1131190C001A39F700D811D1124911DB29F700D7C
S11311A0811D1124911D08950E94C508A59F900DCD
S11311B0B49F900DA49F800D911D11240895FB01EF
S11311C0DC0104C08D910190801921F441505040FC
S10F11D0C8F7881B990B0895F894FFCF12
S11311DC014641543332202020002A2B2C3A3B3C2C
S10D11EC3D3E5B5D7C223F7F000066
S9030000FC
