S00F000053444B616172742E737265638B
S11300000C944A000C9454000C9454000C94540026
S11300100C9454000C9454000C9454000C9454000C
S11300200C9454000C9454000C9454000C945400FC
S11300300C9454000C9454000C9454000C945400EC
S11300400C9454000C9454000C9454000C945400DC
S11300500C9454000C9454000C9454000C945400CC
S11300600C9454000C9454000C9454000C945400BC
S11300700C9454000C9454000C9454000C945400AC
S11300800C9454000C9454000C9454000C9454009C
S11300900C94540011241FBECFEFD0E1DEBFCDBFBE
S11300A00E9452020C9481020C94000084B1876077
S11300B084B984B1886084B983E58CBD08958EBD0C
S11300C00DB407FEFDCF8EB50895CF93C0E003C0F5
S11300D0CF5FC93028F48FEF0E945F008F3FC1F3D8
S11300E0CF910895CF93DF93EC010E94650088833C
S11300F0823080F48FEF0E945F0089838FEF0E942B
S11301005F008A838FEF0E945F008B838FEF0E94D2
S11301105F008C83DF91CF910895CF93DF93EC013F
S11301200E9465008883823080F48FEF0E945F0014
S113013089838FEF0E945F008A838FEF0E945F00A4
S11301408B838FEF0E945F008C83DF91CF910895A2
S1130150FF920F931F93CF93DF93D42F152F062F66
S1130160F72EC22F80640E945F008F2D0E945F00D3
S1130170802F0E945F00812F0E945F008D2F0E94BC
S11301805F008C2F81600E945F00DF91CF911F91EF
S11301900F91FF9008958F929F92AF92BF92CF924A
S11301A0DF92EF92FF920F931F93CF93DF934B0154
S11301B05C018A0169018FEFF90180830E945F006D
S11301C085B18E7F85B98FEF0E945F0020E0B50175
S11301D0A40188E10E94A8000E946500E82E811114
S11301E039C08EEF0E945F00C0E0D0E007C0F80184
S11301F0EC0FFD1F80810E945F002196C115F2E083
S1130200DF07A8F3C0E0D0E00AC08FEF0E945F00D0
S1130210F82E8FEFF81619F0F601808305C02196A9
S1130220C334FFE0DF0789F78F2D8F71853091F498
S1130230F6018083C0E0D0E008C02196C334FFE01B
S1130240DF0719F4F601108205C08FEF0E945F00EA
S1130250882399F38FEF0E945F0085B1816085B98F
S11302608FEF0E945F008E2DDF91CF911F910F9130
S1130270FF90EF90DF90CF90BF90AF909F908F90C2
S11302800895CF93DF93EC018FEF0E945F0085B157
S11302908E7F85B98FEF0E945F0020E040E050E040
S11302A0BA018AE30E94A800CE010E9472008FEF77
S11302B00E945F0085B1816085B98FEF0E945F0065
S11302C0DF91CF910895CF938FEF0E945F0085B1A6
S11302D08E7F85B98FEF0E945F0020E040E050E000
S11302E0BA0187E30E94A8000E946500C82F8FEF1F
S11302F00E945F0085B1816085B98FEF0E945F0025
S11303008C2FCF910895CF938FEF0E945F0085B11A
S11303108E7F85B98FEF0E945F0020E040E050E0BF
S113032060E070E489E20E94A8000E946500C82F82
S11303308FEF0E945F0085B1816085B98FEF0E94C5
S11303405F008C2FCF910895CF93DF93EC018FEF53
S11303500E945F0085B18E7F85B98FEF0E945F0098
S113036026E84AEA51E060E070E088E00E94A800D4
S1130370CE010E948D008FEF0E945F0085B18160E5
S113038085B98FEF0E945F00DF91CF910895CF93DD
S11303908FEF0E945F0085B18E7F85B98FEF0E9439
S11303A05F0024E940E050E0BA0180E00E94A80028
S11303B00E946500C82F8FEF0E945F0085B18160A5
S11303C085B98FEF0E945F008C2FCF910895CF9352
S11303D085B1816085B98FE99FE00197F1F700C08D
S11303E00000C0E004C08FEF0E945F00CF5FCA30FE
S11303F0D0F385B1816085B98FEF0E945F00CF9102
S11304000895FF920F931F93CF93DF9300D000D0F2
S11304101F92CDB7DEB70E94E70100E003C00F5F73
S11304200B3078F50E94C701182F89838130B9F702
S1130430CE0101960E94A401F98081E0F81226C041
S11304408D818A3A01F500E00536F8F40E946301D3
S11304508983823018F40E94830189838FE39CE9A5
S11304600197F1F700C000000F5F19811111ECCF63
S1130470CE0101960E9441018A8188233CF01F2D00
S113048005C011E003C01F2D01C01F2D812F0F9047
S11304900F900F900F900F90DF91CF911F910F91BC
S11304A0FF900895CF93DF93CDB7DEB7C150D2400C
S11304B00FB6F894DEBF0FBECDBF0E9456000E9457
S11304C00102882359F0FFCFE1E0F0E0EC0FFD1FBB
S11304D0E80FF91F25E52083019602C080E090E033
S11304E0811522E0920780F39E012F5F3D4FAE01FC
S11304F04F5F5F4F60E071E080E090E00E94CB00CE
S1090500FFCFF894FFCFC9
S9030000FC
