S00F000053444B616172742E737265638B
S11300000C944A000C9454000C9454000C94540026
S11300100C9454000C9454000C9454000C9454000C
S11300200C9454000C9454000C9454000C945400FC
S11300300C9454000C9454000C9454000C945400EC
S11300400C9454000C9454000C9454000C945400DC
S11300500C9454000C9454000C9454000C945400CC
S11300600C9454000C9454000C9454000C945400BC
S11300700C9454000C9454000C9454000C945400AC
S11300800C9454000C9454000C9454000C9454009C
S11300900C94540011241FBECFEFD0E1DEBFCDBFBE
S11300A00E94CF000C94D6000C94000084B18760A9
S11300B084B984B1886084B983E58CBD08958EBD0C
S11300C00DB407FEFDCF8EB50895CF93C0E003C0F5
S11300D0CF5FC93028F48FEF0E945F008F3FC1F3D8
S11300E0CF910895FF920F931F93CF93DF93D42F53
S11300F0152F062FF72EC22F80640E945F008F2DCC
S11301000E945F00802F0E945F00812F0E945F0089
S11301108D2F0E945F008C2F81600E945F00DF9111
S1130120CF911F910F91FF900895CF938FEF0E946D
S11301305F0085B18E7F85B98FEF0E945F0024E94F
S113014040E050E0BA0180E00E9472000E94650025
S1130150C82F8FEF0E945F0085B1816085B98FEF52
S11301600E945F008C2FCF910895CF9385B1816059
S113017085B989EF90E00197F1F700C00000C0E075
S113018004C08FEF0E945F00CF5FCA30D0F385B107
S1130190816085B98FEF0E945F00CF9108950E941E
S11301A056000E94B5000E949500FFCFF894FFCF3F
S9030000FC
