S014000048616C6C5F73656E736F72332E7372656363
S11300000C944A000C945E000C945C000C945C000C
S11300100C945C000C945C000C945C000C945C00EC
S11300200C945C000C945C000C945C000C945C00DC
S11300300C948B000C945C000C945C000C945C009D
S11300400C945C000C945C000C945C000C945C00BC
S11300500C945C000C945C000C945C000C945C00AC
S11300600C945C000C945C000C945C000C945C009C
S11300700C945C000C945C000C945C000C945C008C
S11300800C945C000C945C000C945C000C945C007C
S11300900C945C0011241FBECFEFD0E1DEBFCDBFB6
S11300A021E0A0E0B1E001C01D92A630B207E1F763
S11300B00E9475000C94EB000C9400001F920F92A8
S11300C00FB60F9211248F939F938091000190910A
S11300D00101019690930101809300019F918F91FA
S11300E00F900FBE0F901F9018958AB18E7F8AB91A
S11300F08BB181608BB98DB381608DBBE9E6F0E093
S113010080818260808360E074E284EF90E00E94EA
S1130110B0007894FFCF1F920F920FB60F92112464
S11301208F939F93AF93BF938091020190910301AA
S1130130A0910401B09105010196A11DB11D809308
S1130140020190930301A0930401B0930501BF91B0
S1130150AF919F918F910F900FBE0F901F901895A4
S113016020E43FE140E050E00E94C900E1E8F0E013
S113017080818A608083BB27A52F942F832F80934F
S1130180890020938800EFE6F0E08081826080831C
S11301900895A1E21A2EAA1BBB1BFD010DC0AA1FC4
S11301A0BB1FEE1FFF1FA217B307E407F50720F0DC
S11301B0A21BB30BE40BF50B661F771F881F991F57
S11301C01A9469F760957095809590959B01AC01A0
S10D01D0BD01CF010895F894FFCF9C
S9030000FC
