S01C0000446174616C6F676765725F6F6E7476616E67656E2E73726563DF
S11300000C944A000C945C000C945C000C945C000E
S11300100C945C000C945C000C945C000C945C00EC
S11300200C945C000C945C000C945C000C945C00DC
S11300300C945C000C945C000C945C000C945C00CC
S11300400C945C000C945C000C943C010C945C00DB
S11300500C945C000C945C000C945C000C945C00AC
S11300600C945C000C945C000C945C000C945C009C
S11300700C945C000C945C000C945C000C945C008C
S11300800C945C000C945C000C945C000C945C007C
S11300900C945C0011241FBECFEFD8E0DEBFCDBFAF
S11300A021E0A0E0B1E001C01D92AF3DB207E1F74D
S11300B00E94F3010C9438020C940000E8EDF0E087
S11300C080818160808386E08093E20084E0809375
S11300D0E30083E18093E40080E008C0982F9295C8
S11300E0907F9093ED001092EF008F5F8F30B0F30C
S11300F078941092DA0080EB8093DB00E8EDF0E076
S1130100808182608083089580E00AC0982F929550
S1130110907F9093ED009091EF00907C21F08F5FA1
S11301208F30A0F38FEF08951F93CF93DF93EC01EB
S1130130162F0E9484008F3F09F44EC0EDEEF0E0CC
S11301409081482F50E09A0122953295307F3227D2
S1130150207F3227292B20831092F0001092F10087
S11301609C2F9295990F907E9093F200D695C79507
S1130170D695C795D695C795C093F300193008F066
S113018018E0EFEEF0E06081612B6083883078F452
S1130190EEEDF0E0408121E030E0B90102C0660FED
S11301A0771F8A95E2F7CB01842B80830EC0EFED95
S11301B0F0E020814850510981E090E002C0880FAE
S11301C0991F4A95E2F7822B8083EFEEF0E080815D
S11301D08068808381E001C080E0DF91CF911F912E
S11301E00895DC01E091020180910101E81709F40E
S11301F041C02BE02E9FF0011124ED5FFE4F3081B2
S11302008181982F97703C9311968C911197887FD8
S1130210892B11968C9311976091020170E0269FAF
S1130220F001279FF00D1124ED5FFE4F82851A9691
S11302308C931A9790E012C0292F30E04BE0469F30
S1130240F001479FF00D1124ED5FFE4FE20FF31F05
S11302504281FD01E20FF31F42839F5F981760F311
S1130260CB01019664E170E00E94100280930201C8
S113027081E0089580E008951F920F920FB60F92C7
S113028011242F933F934F935F936F937F938F9397
S11302909F93AF93BF93CF93EF93FF93C091ED00E0
S11302A087C08091EC00807F8093ED008091EE0008
S11302B086FF0CC01092EE001092EF008091ED00CA
S11302C0EEEDF0E080818E7F808372C08091EE003D
S11302D085FF62C08091EF0084FF0EC08091F00022
S11302E08695869586954091F1004F7790E2499FD7
S11302F0A0011124482B0FC08091F20082958695AD
S113030087704091F30050E0440F551F440F551F70
S1130310440F551F482B2091010130E08BE0829F50
S1130320F001839FF00D1124ED5FFE4F4083952F64
S113033097708181887F892B81838091EF008F70F2
S1130340828790E00EC08091FA004BE0429FF0015A
S1130350439FF00D1124ED5FFE4FE90FF11D8283E1
S11303609F5F8BE0829FF001839FF00D1124ED5F6E
S1130370FE4F8285981738F3C901019664E170E055
S11303800E941002809301011092EE00EFEEF0E063
S11303908081806880830CC08091DA0090E08F7740
S11303A0892B31F0EAEDF0E0808180930001108226
S11303B08091EC0082958F708F3009F072CFC093DA
S11303C0ED00FF91EF91CF91BF91AF919F918F91EC
S11303D07F916F915F914F913F912F910F900FBE3D
S11303E00F901F901895CF93DF93CDB7DEB72B975F
S11303F00FB6F894DEBF0FBECDBF87B1816087B959
S11304000E945E0068E080E590E00E949400CE01C6
S113041001960E94F1008823D1F381E088B9F7CFD7
S113042097FB072E16F4009407D077FD09D00E949D
S1130430240207FC05D03EF4909581959F4F0895C2
S1130440709561957F4F0895AA1BBB1B51E107C0AE
S1130450AA1FBB1FA617B70710F0A61BB70B881F50
S1130460991F5A95A9F780959095BC01CD010895DF
S1070470F894FFCF2A
S9030000FC
