S01D000048616C6C53656E736F7253696D70656C65436F64652E73726563C2
S11300000C944A000C9454000C9454000C94540026
S11300100C9454000C9454000C9454000C9454000C
S11300200C9454000C9454000C9454000C945400FC
S11300300C9454000C9454000C9454000C945400EC
S11300400C9454000C9454000C9454000C945400DC
S11300500C9454000C9454000C9454000C945400CC
S11300600C9454000C9454000C9454000C945400BC
S11300700C9454000C9454000C9454000C945400AC
S11300800C9454000C9454000C9454000C9454009C
S11300900C94540011241FBECFEFD0E1DEBFCDBFBE
S11300A00E9456000C9460000C9400008FEF80BBFB
S11300B017B8309903C081E081BBFBCF11BAF9CFE7
S10700C0F894FFCFDE
S9030000FC
