S013000048616C6C5F73656E736F722E7372656397
S11300000C944A000C9467000C9467000C946700ED
S11300100C9467000C9467000C9467000C946700C0
S11300200C9467000C9467000C9467000C946700B0
S11300300C9465010C9467000C9467000C946700A1
S11300400C9467000C9467000C9467000C94670090
S11300500C9467000C9467000C9467000C94670080
S11300600C9467000C9467000C9467000C94670070
S11300700C9467000C9467000C9467000C94670060
S11300800C9467000C9467000C9467000C94670050
S11300900C94670011241FBECFEFD0E1DEBFCDBFAB
S11300A011E0A0E0B1E0EAE3F8E002C005900D92AF
S11300B0A430B107D9F721E0A4E0B1E001C01D925A
S11300C0A031B207E1F70E9451010C941B040C9477
S11300D000008F929F92AF92BF92CF92DF92EF92E5
S11300E0FF92CF93DF9300D0CDB7DEB71A82198287
S11300F00E94A3014B015C018091080190910901C8
S1130100A0910A01B0910B01A5019401281B390BA0
S11301104A0B5B0BCA01B9010E94C80220E030E01F
S11301204AE754E40E94200260930401709305019D
S11301308093060190930701309B07C089819A81BF
S113014001969A8389838FEF81BB89819A811816DE
S11301501906DCF5C0900401D0900501E090060179
S1130160F090070120E030E040E85EE3C701B6010B
S11301700E94560318166CF569817A81072E000CCB
S1130180880B990B0E94CA02209100013091010151
S113019040910201509103010E945B0326E636E67A
S11301A046E650E40E945B03A70196010E942002E8
S11301B06B017C011A8219828092080190920901D4
S11301C0A0920A01B0920B0107C0C12CD12C760178
S11301D003C0C12CD12C76016091040170910501FA
S11301E0809106019091070120E030E040E050E466
S11301F00E94560318163CF489819A81892B19F4BC
S1130200C12CD12C7601C701B6010F900F90DF915C
S1130210CF91FF90EF90DF90CF90BF90AF909F90E1
S11302208F9008958F929F92AF92BF92CF92DF9258
S1130230EF92FF920F931F93CF93DF934B015C01D7
S11302408A010E9492026B017C01072E000C880B2C
S1130250990B0E94CA029B01AC01C501B4010E9422
S1130260B30120E030E048EC52E40E945B030E94BA
S11302709202EB0121966C2DC8010E940E046C2F92
S1130280C80101960E940E04DF91CF911F910F9136
S1130290FF90EF90DF90CF90BF90AF909F908F90A2
S11302A0089560E074E284EF90E00E948A017894FB
S11302B081E080BB17B818B8C1E0D0E00E946900A3
S11302C0AE010E9412012396F9CF1F920F920FB62E
S11302D00F9211248F939F93AF93BF9380910C013E
S11302E090910D01A0910E01B0910F010196A11DF5
S11302F0B11D80930C0190930D01A0930E01B09356
S11303000F01BF91AF919F918F910F900FBE0F90EE
S11303101F90189520E43FE140E050E00E94EC0378
S1130320E1E8F0E080818A608083BB27A52F942FC9
S1130330832F8093890020938800EFE6F0E080818A
S1130340826080830895F89421E009C060910C01D3
S113035070910D0180910E0190910F0120E0211107
S1130360F5CF789408955058BB27AA270E94CB0153
S11303700C941C030E940E0338F00E94150320F015
S113038039F49F3F19F426F40C940B030EF4E09512
S1130390E7FB0C940503E92F0E942D0358F3BA17C9
S11303A0620773078407950720F079F4A6F50C9487
S11303B04F030EF4E0950B2EBA2FA02D0B01B901BB
S11303C090010C01CA01A0011124FF27591B99F0C7
S11303D0593F50F4503E68F11A16F040A22F232FD3
S11303E0342F4427585FF3CF469537952795A79523
S11303F0F0405395C9F77EF41F16BA0B620B730BCA
S1130400840BBAF09150A1F0FF0FBB1F661F771F3A
S1130410881FC2F70EC0BA0F621F731F841F48F4EF
S1130420879577956795B795F7959E3F08F0B0CF78
S11304309395880F08F09927EE0F9795879508955F
S11304400E9434020C941C030E94150358F00E946D
S11304500E0340F029F45F3F29F00C940503511179
S11304600C9450030C940B030E942D0368F39923FE
S1130470B1F3552391F3951B550BBB27AA2762179C
S11304807307840738F09F5F5F4F220F331F441FA9
S1130490AA1FA9F335D00E2E3AF0E0E832D09150DD
S11304A05040E695001CCAF72BD0FE2F29D0660FCA
S11304B0771F881FBB1F261737074807AB07B0E80D
S11304C009F0BB0B802DBF01FF2793585F4F3AF013
S11304D09E3F510578F00C9405030C9450035F3F44
S11304E0E4F3983ED4F3869577956795B795F79599
S11304F09F5FC9F7880F911D9695879597F9089581
S1130500E1E0660F771F881FBB1F6217730784071C
S1130510BA0720F0621B730B840BBA0BEE1F88F72B
S1130520E09508950E9499026894B1110C945003C7
S113053008950E94350388F09F5798F0B92F9927A2
S1130540B751B0F0E1F0660F771F881F991F1AF0BA
S1130550BA95C9F714C0B13091F00E944F03B1E0CD
S113056008950C944F03672F782F8827B85F39F0CC
S1130570B93FCCF3869577956795B395D9F73EF453
S113058090958095709561957F4F8F4F9F4F0895FB
S1130590E89409C097FB3EF4909580957095619519
S11305A07F4F8F4F9F4F9923A9F0F92F96E9BB27CF
S11305B09395F695879577956795B795F111F8CF4B
S11305C0FAF4BB0F11F460FF1BC06F5F7F4F8F4FB6
S11305D09F4F16C0882311F096E911C0772321F0AC
S11305E09EE8872F762F05C0662371F096E8862F44
S11305F070E060E02AF09A95660F771F881FDAF79B
S1130600880F9695879597F9089597F99F6780E8DD
S113061070E060E008959FEF80EC089500240A9450
S11306201616170618060906089500240A941216C9
S11306301306140605060895092E0394000C11F4FC
S1130640882352F0BB0F40F4BF2B11F460FF04C0A9
S11306506F5F7F4F8F4F9F4F089557FD9058440F02
S1130660551F59F05F3F71F04795880F97FB991F0D
S113067061F09F3F79F087950895121613061406CA
S1130680551FF2CF4695F1DF08C016161706180657
S1130690991FF1CF86957105610508940895E89432
S11306A0BB2766277727CB0197F908950E94C803D3
S11306B008F48FEF08950E946E030C941C030E94AB
S11306C00E0338F00E94150320F0952311F00C94CA
S11306D005030C940B0311240C9450030E942D0366
S11306E070F3959FC1F3950F50E0551F629FF00181
S11306F0729FBB27F00DB11D639FAA27F00DB11D9A
S1130700AA1F649F6627B00DA11D661F829F222722
S1130710B00DA11D621F739FB00DA11D621F839FA9
S1130720A00D611D221F749F3327A00D611D231F7F
S1130730849F600D211D822F762F6A2F11249F57CD
S113074050409AF0F1F088234AF0EE0FFF1FBB1FD0
S1130750661F771F881F91505040A9F79E3F51058F
S113076080F00C9405030C9450035F3FE4F3983E2F
S1130770D4F3869577956795B795F795E7959F5F39
S1130780C1F7FE2B880F911D9695879597F90895CB
S1130790990F0008550FAA0BE0E8FEEF161617068E
S11307A0E807F907C0F012161306E407F50798F0F6
S11307B0621B730B840B950B39F40A2661F0232B0F
S11307C0242B252B21F408950A2609F4A140A6958B
S11307D08FEF811D811D0895A1E21A2EAA1BBB1B58
S11307E0FD010DC0AA1FBB1FEE1FFF1FA217B307F9
S11307F0E407F50720F0A21BB30BE40BF50B661F0F
S1130800771F881F991F1A9469F7609570958095D2
S113081090959B01AC01BD01CF010895262FF99954
S1130820FECF92BD81BD20BD0FB6F894FA9AF99A15
S10D08300FBE01960895F894FFCF5F
S107083ACDCCAC3F32
S9030000FC
