S013000048616C6C5F73656E736F722E7372656397
S11300000C944A000C945C000C945C000C945C000E
S11300100C945C000C945C000C945C000C945C00EC
S11300200C945C000C945C000C945C000C945C00DC
S11300300C94DF000C945C000C945C000C945C0049
S11300400C945C000C945C000C945C000C945C00BC
S11300500C945C000C945C000C945C000C945C00AC
S11300600C945C000C945C000C945C000C945C009C
S11300700C945C000C945C000C945C000C945C008C
S11300800C945C000C945C000C945C000C945C007C
S11300900C945C0011241FBECFEFD0E1DEBFCDBFB6
S11300A021E0A0E0B1E001C01D92A430B207E1F765
S11300B00E949D000C946C030C9400008F929F92FC
S11300C0AF92BF92CF92DF92EF92FF920F931F9362
S11300D0CF93DF934B015C018A010E940C026B01F8
S11300E07C01072E000C880B990B0E9444029B0193
S11300F0AC01C501B4010E942D0120E030E048ECC0
S113010052E40E94D0020E940C02EB0121966C2D55
S1130110C8010E945F036C2FC80101960E945F030F
S1130120DF91CF911F910F91FF90EF90DF90CF90CF
S1130130BF90AF909F908F90089560E074E284EF39
S113014090E00E940401789481E080BB17B818B84D
S113015000E010E080E090E001C0CE0126B1217003
S1130160C22F20E0D22F8C179D07B9F3C130D105DF
S1130170A1F70E941D010E94420220E030E04AE7FC
S113018054E40E949A019B01AC016DEC7CEC8CEA76
S11301909FE30E949A0126E636E646E650E40E9472
S11301A0D002A8010E945E000E5F1F4F1092000152
S11301B0109201011092020110920301CECF1F92FE
S11301C00F920FB60F9211248F939F93AF93BF9307
S11301D08091000190910101A0910201B09103016D
S11301E00196A11DB11D8093000190930101A0937C
S11301F00201B0930301BF91AF919F918F910F9032
S11302000FBE0F901F90189520E43FE140E050E0AE
S11302100E943D03E1E8F0E080818A608083BB278F
S1130220A52F942F832F8093890020938800EFE6D5
S1130230F0E08081826080830895F89421E009C011
S1130240609100017091010180910201909103017C
S113025020E02111F5CF789408955058BB27AA27A0
S11302600E9445010C9496020E94880238F00E9474
S11302708F0220F039F49F3F19F426F40C94850280
S11302800EF4E095E7FB0C947F02E92F0E94A7028D
S113029058F3BA17620773078407950720F079F4B7
S11302A0A6F50C94C9020EF4E0950B2EBA2FA02DDE
S11302B00B01B90190010C01CA01A0011124FF270F
S11302C0591B99F0593F50F4503E68F11A16F0400A
S11302D0A22F232F342F4427585FF3CF4695379509
S11302E02795A795F0405395C9F77EF41F16BA0BCE
S11302F0620B730B840BBAF09150A1F0FF0FBB1F7C
S1130300661F771F881FC2F70EC0BA0F621F731FC4
S1130310841F48F4879577956795B795F7959E3F21
S113032008F0B0CF9395880F08F09927EE0F9795B2
S1130330879508950E94AE010C9496020E948F0244
S113034058F00E94880240F029F45F3F29F00C9491
S11303507F0251110C94CA020C9485020E94A702D8
S113036068F39923B1F3552391F3951B550BBB27E0
S1130370AA2762177307840738F09F5F5F4F220F25
S1130380331F441FAA1FA9F335D00E2E3AF0E0E81C
S113039032D091505040E695001CCAF72BD0FE2F66
S11303A029D0660F771F881FBB1F261737074807FA
S11303B0AB07B0E809F0BB0B802DBF01FF279358B2
S11303C05F4F3AF09E3F510578F00C947F020C94F5
S11303D0CA025F3FE4F3983ED4F386957795679518
S11303E0B795F7959F5FC9F7880F911D96958795E7
S11303F097F90895E1E0660F771F881FBB1F621706
S113040073078407BA0720F0621B730B840BBA0BC3
S1130410EE1F88F7E09508950E9413026894B111C5
S11304200C94CA0208950E94AF0288F09F5798F076
S1130430B92F9927B751B0F0E1F0660F771F881FE5
S1130440991F1AF0BA95C9F714C0B13091F00E94FF
S1130450C902B1E008950C94C902672F782F882748
S1130460B85F39F0B93FCCF3869577956795B39526
S1130470D9F73EF490958095709561957F4F8F4F95
S11304809F4F0895E89409C097FB3EF4909580959A
S1130490709561957F4F8F4F9F4F9923A9F0F92F46
S11304A096E9BB279395F695879577956795B795C4
S11304B0F111F8CFFAF4BB0F11F460FF1BC06F5FAA
S11304C07F4F8F4F9F4F16C0882311F096E911C0BC
S11304D0772321F09EE8872F762F05C0662371F0DD
S11304E096E8862F70E060E02AF09A95660F771FF1
S11304F0881FDAF7880F9695879597F9089597F9E5
S11305009F6780E870E060E008959FEF80EC0895B5
S113051000240A94161617061806090608950024DE
S11305200A9412161306140605060895092E039458
S1130530000C11F4882352F0BB0F40F4BF2B11F4CC
S113054060FF04C06F5F7F4F8F4F9F4F089557FD2B
S11305509058440F551F59F05F3F71F04795880F2D
S113056097FB991F61F09F3F79F0879508951216C4
S113057013061406551FF2CF4695F1DF08C0161670
S113058017061806991FF1CF869571056105089421
S11305900895E894BB2766277727CB0197F9089538
S11305A00E94E3020C9496020E94880238F00E9492
S11305B08F0220F0952311F00C947F020C94850295
S11305C011240C94CA020E94A70270F3959FC1F3F0
S11305D0950F50E0551F629FF001729FBB27F00DED
S11305E0B11D639FAA27F00DB11DAA1F649F662742
S11305F0B00DA11D661F829F2227B00DA11D621F91
S1130600739FB00DA11D621F839FA00D611D221F4A
S1130610749F3327A00D611D231F849F600D211D2E
S1130620822F762F6A2F11249F5750409AF0F1F0B1
S113063088234AF0EE0FFF1FBB1F661F771F881F1A
S113064091505040A9F79E3F510580F00C947F02D1
S11306500C94CA025F3FE4F3983ED4F386957795F1
S11306606795B795F795E7959F5FC1F7FE2B880FC0
S1130670911D9695879597F90895A1E21A2EAA1BC4
S1130680BB1BFD010DC0AA1FBB1FEE1FFF1FA2173E
S1130690B307E407F50720F0A21BB30BE40BF50B3B
S11306A0661F771F881F991F1A9469F760957095C4
S11306B0809590959B01AC01BD01CF010895262F33
S11306C0F999FECF92BD81BD20BD0FB6F894FA9A78
S10F06D0F99A0FBE01960895F894FFCF2C
S9030000FC
