S013000048616C6C5F73656E736F722E7372656397
S11300000C944A000C945C000C945C000C945C000E
S11300100C945C000C945C000C945C000C945C00EC
S11300200C945C000C945C000C945C000C945C00DC
S11300300C9409010C945C000C945C000C945C001E
S11300400C945C000C945C000C945C000C945C00BC
S11300500C945C000C945C000C945C000C945C00AC
S11300600C945C000C945C000C945C000C945C009C
S11300700C945C000C945C000C945C000C945C008C
S11300800C945C000C945C000C945C000C945C007C
S11300900C945C0011241FBECFEFD0E1DEBFCDBFB6
S11300A021E0A0E0B1E001C01D92AE30B207E1F75B
S11300B00E949D000C94BF030C9400008F929F92A9
S11300C0AF92BF92CF92DF92EF92FF920F931F9362
S11300D0CF93DF934B015C018A010E9436026B01CE
S11300E07C01072E000C880B990B0E946E029B0169
S11300F0AC01C501B4010E94570120E030E048EC96
S113010052E40E94FF020E943602EB0121966C2DFC
S1130110C8010E94B2036C2FC80101960E94B20369
S1130120DF91CF911F910F91FF90EF90DF90CF90CF
S1130130BF90AF909F908F90089560E07BE187EB34
S113014090E00E942E0178948FEF80BB17B818B806
S1130150C0E0D0E0812C912C54010E9447016B0136
S11301607C01309B09C0809108019091090101969E
S113017090930901809308018091080190910901ED
S1130180181619060CF043C0C701B601681979099D
S11301908A099B090E946C0220E030E04AE754E49B
S11301A00E94C4012B013C0120E030E040E05FE309
S11301B00E94FA0218168CF6A30192016DEC7CECF5
S11301C08CEA9FE30E94C4016093000170930101D3
S11301D0809302019093030126E636E646E650E456
S11301E00E94FF026093040170930501809306014D
S11301F090930701AE010E945E0022968FEF81BBAF
S1130200109209011092080146015701A6CF11BAB4
S1130210A4CF1F920F920FB60F9211248F939F9326
S1130220AF93BF9380910A0190910B01A0910C01AF
S1130230B0910D010196A11DB11D80930A01909307
S11302400B01A0930C01B0930D01BF91AF919F914D
S11302508F910F900FBE0F901F90189520E43FE1EF
S113026040E050E00E949003E1E8F0E080818A6081
S11302708083BB27A52F942F832F809389002093FD
S11302808800EFE6F0E08081826080830895F8942E
S113029021E009C060910A0170910B0180910C0169
S11302A090910D0120E02111F5CF789408955058D4
S11302B0BB27AA270E946F010C94C0020E94B202BD
S11302C038F00E94B90220F039F49F3F19F426F463
S11302D00C94AF020EF4E095E7FB0C94A902E92F0D
S11302E00E94D10258F3BA1762077307840795076F
S11302F020F079F4A6F50C94F3020EF4E0950B2E9D
S1130300BA2FA02D0B01B90190010C01CA01A00163
S11303101124FF27591B99F0593F50F4503E68F1BE
S11303201A16F040A22F232F342F4427585FF3CFFF
S1130330469537952795A795F0405395C9F77EF4D0
S11303401F16BA0B620B730B840BBAF09150A1F019
S1130350FF0FBB1F661F771F881FC2F70EC0BA0F9F
S1130360621F731F841F48F4879577956795B79527
S1130370F7959E3F08F0B0CF9395880F08F0992722
S1130380EE0F9795879508950E94D8010C94C002AA
S11303900E94B90258F00E94B20240F029F45F3F73
S11303A029F00C94A90251110C94F4020C94AF029C
S11303B00E94D10268F39923B1F3552391F3951B5D
S11303C0550BBB27AA2762177307840738F09F5F72
S11303D05F4F220F331F441FAA1FA9F335D00E2EDF
S11303E03AF0E0E832D091505040E695001CCAF74C
S11303F02BD0FE2F29D0660F771F881FBB1F26170F
S113040037074807AB07B0E809F0BB0B802DBF01E5
S1130410FF2793585F4F3AF09E3F510578F00C94B4
S1130420A9020C94F4025F3FE4F3983ED4F386955A
S113043077956795B795F7959F5FC9F7880F911DD5
S11304409695879597F90895E1E0660F771F881FC1
S1130450BB1F621773078407BA0720F0621B730B74
S1130460840BBA0BEE1F88F7E09508950E943D02B5
S11304706894B1110C94F40208950E94D90288F092
S11304809F5798F0B92F9927B751B0F0E1F0660F54
S1130490771F881F991F1AF0BA95C9F714C0B13095
S11304A091F00E94F302B1E008950C94F302672FD7
S11304B0782F8827B85F39F0B93FCCF386957795C4
S11304C06795B395D9F73EF49095809570956195AD
S11304D07F4F8F4F9F4F0895E89409C097FB3EF4D8
S11304E090958095709561957F4F8F4F9F4F99237D
S11304F0A9F0F92F96E9BB279395F69587957795FB
S11305006795B795F111F8CFFAF4BB0F11F460FFBA
S11305101BC06F5F7F4F8F4F9F4F16C0882311F012
S113052096E911C0772321F09EE8872F762F05C026
S1130530662371F096E8862F70E060E02AF09A95C1
S1130540660F771F881FDAF7880F9695879597F9B6
S1130550089597F99F6780E870E060E008959FEF41
S113056080EC089500240A94161617061806090646
S1130570089500240A941216130614060506089515
S1130580092E0394000C11F4882352F0BB0F40F49D
S1130590BF2B11F460FF04C06F5F7F4F8F4F9F4FDD
S11305A0089557FD9058440F551F59F05F3F71F05F
S11305B04795880F97FB991F61F09F3F79F08795C6
S11305C00895121613061406551FF2CF4695F1DF4F
S11305D008C0161617061806991FF1CF86957105DF
S11305E0610508940895E894BB2766277727CB0113
S11305F097F908950E946C0308F48FEF08950E9400
S113060012030C94C0020E94B20238F00E94B90294
S113061020F0952311F00C94A9020C94AF0211243C
S11306200C94F4020E94D10270F3959FC1F3950FCC
S113063050E0551F629FF001729FBB27F00DB11D62
S1130640639FAA27F00DB11DAA1F649F6627B00DF2
S1130650A11D661F829F2227B00DA11D621F739FDB
S1130660B00DA11D621F839FA00D611D221F749FE9
S11306703327A00D611D231F849F600D211D822F30
S1130680762F6A2F11249F5750409AF0F1F0882357
S11306904AF0EE0FFF1FBB1F661F771F881F915084
S11306A05040A9F79E3F510580F00C94A9020C9488
S11306B0F4025F3FE4F3983ED4F38695779567950B
S11306C0B795F795E7959F5FC1F7FE2B880F911DAE
S11306D09695879597F90895990F0008550FAA0BD9
S11306E0E0E8FEEF16161706E807F907C0F0121641
S11306F01306E407F50798F0621B730B840B950B44
S113070039F40A2661F0232B242B252B21F4089598
S11307100A2609F4A140A6958FEF811D811D089535
S1130720A1E21A2EAA1BBB1BFD010DC0AA1FBB1FF1
S1130730EE1FFF1FA217B307E407F50720F0A21B63
S1130740B30BE40BF50B661F771F881F991F1A94D0
S113075069F760957095809590959B01AC01BD01FA
S1130760CF010895262FF999FECF92BD81BD20BDFA
S11307700FB6F894FA9AF99A0FBE01960895F89470
S1050780FFCFA5
S9030000FC
